{
  "address": "0x0256e569f883559e71febf0684d99f648fa7d00f",
  "abi": [
    {
      "inputs": [
        {
          "internalType": "address",
          "name": "addr",
          "type": "address"
        }
      ],
      "name": "InvalidAddress",
      "type": "error"
    },
    {
      "inputs": [
        {
          "internalType": "uint256",
          "name": "tokenID",
          "type": "uint256"
        }
      ],
      "name": "NonExistentToken",
      "type": "error"
    },
    {
      "inputs": [],
      "name": "NonceOverflow",
      "type": "error"
    },
    {
      "inputs": [],
      "name": "NotAuthorized",
      "type": "error"
    },
    {
      "inputs": [
        {
          "internalType": "address",
          "name": "provided",
          "type": "address"
        },
        {
          "internalType": "address",
          "name": "currentOwner",
          "type": "address"
        }
      ],
      "name": "NotOwner",
      "type": "error"
    },
    {
      "inputs": [
        {
          "internalType": "uint256",
          "name": "tokenID",
          "type": "uint256"
        }
      ],
      "name": "TokenAlreadyExists",
      "type": "error"
    },
    {
      "inputs": [],
      "name": "TransferRejected",
      "type": "error"
    },
    {
      "anonymous": false,
      "inputs": [
        {
          "indexed": true,
          "internalType": "address",
          "name": "owner",
          "type": "address"
        },
        {
          "indexed": true,
          "internalType": "address",
          "name": "approved",
          "type": "address"
        },
        {
          "indexed": true,
          "internalType": "uint256",
          "name": "tokenID",
          "type": "uint256"
        }
      ],
      "name": "Approval",
      "type": "event"
    },
    {
      "anonymous": false,
      "inputs": [
        {
          "indexed": true,
          "internalType": "address",
          "name": "owner",
          "type": "address"
        },
        {
          "indexed": true,
          "internalType": "address",
          "name": "operator",
          "type": "address"
        },
        {
          "indexed": false,
          "internalType": "bool",
          "name": "approved",
          "type": "bool"
        }
      ],
      "name": "ApprovalForAll",
      "type": "event"
    },
    {
      "anonymous": false,
      "inputs": [
        {
          "indexed": true,
          "internalType": "address",
          "name": "from",
          "type": "address"
        },
        {
          "indexed": true,
          "internalType": "address",
          "name": "to",
          "type": "address"
        },
        {
          "indexed": true,
          "internalType": "uint256",
          "name": "tokenID",
          "type": "uint256"
        }
      ],
      "name": "Transfer",
      "type": "event"
    },
    {
      "inputs": [
        {
          "internalType": "address",
          "name": "operator",
          "type": "address"
        },
        {
          "internalType": "uint256",
          "name": "tokenID",
          "type": "uint256"
        }
      ],
      "name": "approve",
      "outputs": [],
      "stateMutability": "nonpayable",
      "type": "function"
    },
    {
      "inputs": [
        {
          "internalType": "address",
          "name": "owner",
          "type": "address"
        }
      ],
      "name": "balanceOf",
      "outputs": [
        {
          "internalType": "uint256",
          "name": "balance",
          "type": "uint256"
        }
      ],
      "stateMutability": "view",
      "type": "function"
    },
    {
      "inputs": [
        {
          "internalType": "uint256",
          "name": "tokenID",
          "type": "uint256"
        }
      ],
      "name": "getApproved",
      "outputs": [
        {
          "internalType": "address",
          "name": "operator",
          "type": "address"
        }
      ],
      "stateMutability": "view",
      "type": "function"
    },
    {
      "inputs": [
        {
          "internalType": "address",
          "name": "owner",
          "type": "address"
        },
        {
          "internalType": "address",
          "name": "operator",
          "type": "address"
        }
      ],
      "name": "isApprovedForAll",
      "outputs": [
        {
          "internalType": "bool",
          "name": "isOperator",
          "type": "bool"
        }
      ],
      "stateMutability": "view",
      "type": "function"
    },
    {
      "inputs": [
        {
          "internalType": "address",
          "name": "to",
          "type": "address"
        },
        {
          "internalType": "uint96",
          "name": "data",
          "type": "uint96"
        }
      ],
      "name": "mint",
      "outputs": [],
      "stateMutability": "nonpayable",
      "type": "function"
    },
    {
      "inputs": [
        {
          "internalType": "uint256[]",
          "name": "tokenIDs",
          "type": "uint256[]"
        }
      ],
      "name": "ownerAndLastTransferBlockNumberList",
      "outputs": [
        {
          "components": [
            {
              "internalType": "address",
              "name": "owner",
              "type": "address"
            },
            {
              "internalType": "uint256",
              "name": "lastTransferBlockNumber",
              "type": "uint256"
            }
          ],
          "internalType": "struct IERC721WithBlocknumber.OwnerData[]",
          "name": "ownersData",
          "type": "tuple[]"
        }
      ],
      "stateMutability": "view",
      "type": "function"
    },
    {
      "inputs": [
        {
          "internalType": "uint256",
          "name": "tokenID",
          "type": "uint256"
        }
      ],
      "name": "ownerAndLastTransferBlockNumberOf",
      "outputs": [
        {
          "internalType": "address",
          "name": "owner",
          "type": "address"
        },
        {
          "internalType": "uint256",
          "name": "blockNumber",
          "type": "uint256"
        }
      ],
      "stateMutability": "view",
      "type": "function"
    },
    {
      "inputs": [
        {
          "internalType": "uint256",
          "name": "tokenID",
          "type": "uint256"
        }
      ],
      "name": "ownerOf",
      "outputs": [
        {
          "internalType": "address",
          "name": "owner",
          "type": "address"
        }
      ],
      "stateMutability": "view",
      "type": "function"
    },
    {
      "inputs": [
        {
          "internalType": "address",
          "name": "from",
          "type": "address"
        },
        {
          "internalType": "address",
          "name": "to",
          "type": "address"
        },
        {
          "internalType": "uint256",
          "name": "tokenID",
          "type": "uint256"
        }
      ],
      "name": "safeTransferFrom",
      "outputs": [],
      "stateMutability": "nonpayable",
      "type": "function"
    },
    {
      "inputs": [
        {
          "internalType": "address",
          "name": "from",
          "type": "address"
        },
        {
          "internalType": "address",
          "name": "to",
          "type": "address"
        },
        {
          "internalType": "uint256",
          "name": "tokenID",
          "type": "uint256"
        },
        {
          "internalType": "bytes",
          "name": "data",
          "type": "bytes"
        }
      ],
      "name": "safeTransferFrom",
      "outputs": [],
      "stateMutability": "nonpayable",
      "type": "function"
    },
    {
      "inputs": [
        {
          "internalType": "address",
          "name": "operator",
          "type": "address"
        },
        {
          "internalType": "bool",
          "name": "approved",
          "type": "bool"
        }
      ],
      "name": "setApprovalForAll",
      "outputs": [],
      "stateMutability": "nonpayable",
      "type": "function"
    },
    {
      "inputs": [
        {
          "internalType": "bytes4",
          "name": "interfaceID",
          "type": "bytes4"
        }
      ],
      "name": "supportsInterface",
      "outputs": [
        {
          "internalType": "bool",
          "name": "",
          "type": "bool"
        }
      ],
      "stateMutability": "view",
      "type": "function"
    },
    {
      "inputs": [
        {
          "internalType": "address",
          "name": "from",
          "type": "address"
        },
        {
          "internalType": "address",
          "name": "to",
          "type": "address"
        },
        {
          "internalType": "uint256",
          "name": "tokenID",
          "type": "uint256"
        }
      ],
      "name": "transferFrom",
      "outputs": [],
      "stateMutability": "nonpayable",
      "type": "function"
    }
  ],
  "contractName": "Characters",
  "sourceName": "src/characters/Characters.sol",
  "bytecode": "0x60808060405234601557611551908161001a8239f35b5f80fdfe608060409080825260049081361015610016575f80fd5b5f3560e01c90816301ffc9a714610ddd57508063081812fc14610d83578063095ea7b314610b595780631b025a40146108b757806323b872dd146106b457806342842e0e1461068c57806348f3c51c146105fb5780636352211e1461056757806370a08231146104cf578063a22cb46514610406578063b88d4fde1461030c578063e985e9c5146102925763f3945282146100af575f80fd5b3461028e57602091827ffffffffffffffffffffffffffffffffffffffffffffffffffffffffffffffffc36011261028e57813567ffffffffffffffff80821161028e573660238301121561028e57818401359181831161028e5760249060053660248660051b8401011161028e5761012a8598979698611421565b9561013789519788610fb8565b8587527fffffffffffffffffffffffffffffffffffffffffffffffffffffffffffffffe061016487611421565b01905f5b828110610235575050505f5b8581106101dd5788518881528751818a018190528190818c01908a8c01908c5f8f5b8382106101a35786860387f35b8451805173ffffffffffffffffffffffffffffffffffffffff16875283015186840152879650948501949382019360019190910190610196565b8084600192849b999a9b1b850101355f525f8a5285885f205473ffffffffffffffffffffffffffffffffffffffff8116610217848d611439565b515260b81c168a610228838c611439565b5101520197969597610174565b8a98999a5189810181811089821117610263578a525f8082528c8201528a82018c0152979998978901610168565b876041857f4e487b71000000000000000000000000000000000000000000000000000000005f52525ffd5b5f80fd5b823461028e57807ffffffffffffffffffffffffffffffffffffffffffffffffffffffffffffffffc36011261028e576020906102cc610ec9565b6102d4610eec565b9073ffffffffffffffffffffffffffffffffffffffff8091165f5260028452825f2091165f52825260ff815f20541690519015158152f35b503461028e5760807ffffffffffffffffffffffffffffffffffffffffffffffffffffffffffffffffc36011261028e57610344610ec9565b61034c610eec565b6064359367ffffffffffffffff9384861161028e573660238701121561028e57858101359485116103da575051926103ac60207fffffffffffffffffffffffffffffffffffffffffffffffffffffffffffffffe0601f8401160185610fb8565b808452366024828701011161028e576020815f9260246103d89801838801378501015260443591611094565b005b6041907f4e487b71000000000000000000000000000000000000000000000000000000005f525260245ffd5b823461028e57807ffffffffffffffffffffffffffffffffffffffffffffffffffffffffffffffffc36011261028e5761043d610ec9565b906024359081151580920361028e57335f52600260205273ffffffffffffffffffffffffffffffffffffffff815f20931692835f52602052805f207fffffffffffffffffffffffffffffffffffffffffffffffffffffffffffffff0081541660ff8416179055519081527f17307eab39ab6107e8899845ad3d59bd9653f200f220920489ca2b5937696c3160203392a3005b50903461028e5760207ffffffffffffffffffffffffffffffffffffffffffffffffffffffffffffffffc36011261028e5773ffffffffffffffffffffffffffffffffffffffff61051d610ec9565b16801561053957602092505f5260018252805f20549051908152f35b6024929151917f8e4c8aa6000000000000000000000000000000000000000000000000000000008352820152fd5b503461028e5760207ffffffffffffffffffffffffffffffffffffffffffffffffffffffffffffffffc36011261028e57803590815f525f60205273ffffffffffffffffffffffffffffffffffffffff835f2054169182156105cc576020838551908152f35b602492508351917f38077a2b000000000000000000000000000000000000000000000000000000008352820152fd5b503461028e5760207ffffffffffffffffffffffffffffffffffffffffffffffffffffffffffffffffc36011261028e5761066790355f525f60205260405f2054906affffffffffffffffffffff73ffffffffffffffffffffffffffffffffffffffff83169260a01c1690565b73ffffffffffffffffffffffffffffffffffffffff83519216825260181c6020820152f35b823461028e576103d89061069f36610f0f565b919251926106ac84610f6f565b5f8452611094565b50903461028e576106c436610f0f565b9192610727835f525f60205260405f20549073ffffffffffffffffffffffffffffffffffffffff8216916affffffffffffffffffffff7f8000000000000000000000000000000000000000000000000000000000000000808316149160a01c1691565b73ffffffffffffffffffffffffffffffffffffffff939291938083169283156108885781891693840361083457508086168015801561082b575b6107fc5750823303610780575b6103d88888888860181c15159261147a565b816107e4575b501590816107c4575b5061079c5780808061076e565b8590517fea8e4eb5000000000000000000000000000000000000000000000000000000008152fd5b90505f526002602052805f20335f5260205260ff815f205416155f61078f565b9050855f5260036020523390835f205416145f610786565b896024918651917f8e4c8aa6000000000000000000000000000000000000000000000000000000008352820152fd5b50308114610761565b84517f23295f0e00000000000000000000000000000000000000000000000000000000815273ffffffffffffffffffffffffffffffffffffffff808b16828d01908152921660208301529081906040010390fd5b60248a898751917f38077a2b000000000000000000000000000000000000000000000000000000008352820152fd5b50903461028e57807ffffffffffffffffffffffffffffffffffffffffffffffffffffffffffffffffc36011261028e576108ef610ec9565b6024356bffffffffffffffffffffffff811680910361028e577f0ffffffffffffffffffffffffffffffffffffffff0000000000000000000000082605c1b161790815f5260205f815273ffffffffffffffffffffffffffffffffffffffff80855f205416610b2a5784519061096382610f6f565b5f8252831692835f5260018352855f2060018154019055845f525f8352834360b81b17865f205584845f7fddf252ad1be2c89b69c2b068fc378daa952ba7f163c4a11628f55a4df523b3ef8180a43b6109b857005b81601f9381925f60a48a987fffffffffffffffffffffffffffffffffffffffffffffffffffffffffffffffe08b51998a97889687947f150b7a02000000000000000000000000000000000000000000000000000000009e8f875233908701528760248701526044860152608060648601528051918291826084880152018686015e85858286010152011681010301925af1908115610b20575f91610aa9575b507fffffffff0000000000000000000000000000000000000000000000000000000091501603610a8357005b517f4e472e5e000000000000000000000000000000000000000000000000000000008152fd5b905081813d8311610b19575b610abf8183610fb8565b8101031261028e57517fffffffff000000000000000000000000000000000000000000000000000000008116810361028e577fffffffff00000000000000000000000000000000000000000000000000000000905f610a57565b503d610ab5565b84513d5f823e3d90fd5b602486858751917f6025413b000000000000000000000000000000000000000000000000000000008352820152fd5b503461028e57817ffffffffffffffffffffffffffffffffffffffffffffffffffffffffffffffffc36011261028e57610b90610ec9565b9060243592610bd0845f525f60205260405f2054906affffffffffffffffffffff73ffffffffffffffffffffffffffffffffffffffff83169260a01c1690565b9373ffffffffffffffffffffffffffffffffffffffff809216938415610d54578433141580610d35575b610d0e576001860195868111610ce25760181c8660181c03610cbb57501692829084610c5657855f525f60205260a01b17905f20555b7f8c5be1e5ebec7d5bd14f71427d1e84f3dd0314c0f7b2291e5b200ac8c7c3b9255f80a4005b855f525f60205260a01b177f800000000000000000000000000000000000000000000000000000000000000017815f205560036020525f20827fffffffffffffffffffffffff0000000000000000000000000000000000000000825416179055610c30565b83517fadc15572000000000000000000000000000000000000000000000000000000008152fd5b6011827f4e487b71000000000000000000000000000000000000000000000000000000005f525260245ffd5b83517fea8e4eb5000000000000000000000000000000000000000000000000000000008152fd5b50845f526002602052835f20335f5260205260ff845f20541615610bfa565b602490878551917f38077a2b000000000000000000000000000000000000000000000000000000008352820152fd5b50903461028e5760207ffffffffffffffffffffffffffffffffffffffffffffffffffffffffffffffffc36011261028e5773ffffffffffffffffffffffffffffffffffffffff610dd560209335610ff9565b915191168152f35b823461028e5760207ffffffffffffffffffffffffffffffffffffffffffffffffffffffffffffffffc36011261028e5735907fffffffff00000000000000000000000000000000000000000000000000000000821680920361028e57817f01ffc9a70000000000000000000000000000000000000000000000000000000060209314908115610e9f575b8115610e75575b5015158152f35b7f5b5e139f0000000000000000000000000000000000000000000000000000000091501483610e6e565b7f80ac58cd0000000000000000000000000000000000000000000000000000000081149150610e67565b6004359073ffffffffffffffffffffffffffffffffffffffff8216820361028e57565b6024359073ffffffffffffffffffffffffffffffffffffffff8216820361028e57565b7ffffffffffffffffffffffffffffffffffffffffffffffffffffffffffffffffc606091011261028e5773ffffffffffffffffffffffffffffffffffffffff90600435828116810361028e5791602435908116810361028e579060443590565b6020810190811067ffffffffffffffff821117610f8b57604052565b7f4e487b71000000000000000000000000000000000000000000000000000000005f52604160045260245ffd5b90601f7fffffffffffffffffffffffffffffffffffffffffffffffffffffffffffffffe0910116810190811067ffffffffffffffff821117610f8b57604052565b805f525f60205260405f20549073ffffffffffffffffffffffffffffffffffffffff917f800000000000000000000000000000000000000000000000000000000000000090838116156110635781160361105d575f52600360205260405f20541690565b50505f90565b602483604051907f38077a2b0000000000000000000000000000000000000000000000000000000082526004820152fd5b9290916110f8815f525f60205260405f20549073ffffffffffffffffffffffffffffffffffffffff8216916affffffffffffffffffffff7f8000000000000000000000000000000000000000000000000000000000000000808316149160a01c1691565b94919573ffffffffffffffffffffffffffffffffffffffff958688169788156113f05787831680990361139f57508684169687158015611396575b61136557859185918a33036112e1575b50506111549360181c15159261147a565b3b611160575b50505050565b601f926020925f60a485947fffffffffffffffffffffffffffffffffffffffffffffffffffffffffffffffe0604051988997889687947f150b7a02000000000000000000000000000000000000000000000000000000009d8e875233600488015260248701526044860152608060648601528051918291826084880152018686015e85858286010152011681010301925af180156112d6575f9061125b575b7fffffffff0000000000000000000000000000000000000000000000000000000091501603611231575f80808061115a565b60046040517f4e472e5e000000000000000000000000000000000000000000000000000000008152fd5b506020813d6020116112ce575b8161127560209383610fb8565b8101031261028e57517fffffffff000000000000000000000000000000000000000000000000000000008116810361028e577fffffffff00000000000000000000000000000000000000000000000000000000906111ff565b3d9150611268565b6040513d5f823e3d90fd5b91508092509161134c575b50158061132b575b6113015783835f80611143565b60046040517fea8e4eb5000000000000000000000000000000000000000000000000000000008152fd5b50865f52600260205260405f20335f5260205260ff60405f205416156112f4565b9050845f526003602052339060405f205416145f6112ec565b602488604051907f8e4c8aa60000000000000000000000000000000000000000000000000000000082526004820152fd5b50308814611133565b6040517f23295f0e00000000000000000000000000000000000000000000000000000000815273ffffffffffffffffffffffffffffffffffffffff8481166004830152919091166024820152604490fd5b602486604051907f38077a2b0000000000000000000000000000000000000000000000000000000082526004820152fd5b67ffffffffffffffff8111610f8b5760051b60200190565b805182101561144d5760209160051b010190565b7f4e487b71000000000000000000000000000000000000000000000000000000005f52603260045260245ffd5b92919273ffffffffffffffffffffffffffffffffffffffff80921692835f52600160205260405f20600181540190556114e7575b835f525f602052824360b81b1760405f2055167fddf252ad1be2c89b69c2b068fc378daa952ba7f163c4a11628f55a4df523b3ef5f80a4565b8181165f5260405f207fffffffffffffffffffffffffffffffffffffffffffffffffffffffffffffffff81540190556114ae56fea26469706673582212207702389803f34ac284c319a65a14d6fab135c0a8b585173672ef7e1500065ce964736f6c63430008190033",
  "linkReferences": {},
  "deployedLinkReferences": {},
  "devdoc": {
    "errors": {
      "InvalidAddress(address)": [
        {
          "params": {
            "addr": "invalid address"
          }
        }
      ],
      "NonExistentToken(uint256)": [
        {
          "params": {
            "tokenID": "id of the expected token"
          }
        }
      ],
      "NotOwner(address,address)": [
        {
          "params": {
            "currentOwner": "the current owner",
            "provided": "the address expected to be the current owner"
          }
        }
      ],
      "TokenAlreadyExists(uint256)": [
        {
          "params": {
            "tokenID": "id of the token to create"
          }
        }
      ]
    },
    "events": {
      "Approval(address,address,uint256)": {
        "params": {
          "approved": "account who can know transfer on the owner's behalf",
          "owner": "current owner of the token",
          "tokenID": "id of the token being approved"
        }
      },
      "ApprovalForAll(address,address,bool)": {
        "params": {
          "approved": "whether it is approved or not",
          "operator": "account who can know transfer on the owner's behalf",
          "owner": "the account granting rights over all of its token"
        }
      },
      "Transfer(address,address,uint256)": {
        "params": {
          "from": "the account the token is sent from",
          "to": "the account the token is sent to",
          "tokenID": "id of the token being sent"
        }
      }
    },
    "kind": "dev",
    "methods": {
      "approve(address,uint256)": {
        "params": {
          "operator": "The address receiving the approval.",
          "tokenID": "The id of the token."
        }
      },
      "balanceOf(address)": {
        "params": {
          "owner": "The address to look for."
        },
        "returns": {
          "balance": "The number of tokens owned by the address."
        }
      },
      "getApproved(uint256)": {
        "params": {
          "tokenID": "The id of the token."
        },
        "returns": {
          "operator": "The address of the operator."
        }
      },
      "isApprovedForAll(address,address)": {
        "params": {
          "operator": "The address of the operator.",
          "owner": "The address of the owner."
        },
        "returns": {
          "isOperator": "The status of the approval."
        }
      },
      "ownerAndLastTransferBlockNumberList(uint256[])": {
        "params": {
          "tokenIDs": "The list of token ids to check."
        },
        "returns": {
          "ownersData": "The list of (owner, lastTransferBlockNumber) for each ids given as input."
        }
      },
      "ownerAndLastTransferBlockNumberOf(uint256)": {
        "params": {
          "tokenID": "The id of the token."
        },
        "returns": {
          "blockNumber": "The blocknumber at which the last transfer of that id happened.",
          "owner": "The address of the token owner."
        }
      },
      "ownerOf(uint256)": {
        "params": {
          "tokenID": "The id of the token."
        },
        "returns": {
          "owner": "The address of the token owner."
        }
      },
      "safeTransferFrom(address,address,uint256)": {
        "params": {
          "from": "The send of the token.",
          "to": "The recipient of the token.",
          "tokenID": "The id of the token."
        }
      },
      "safeTransferFrom(address,address,uint256,bytes)": {
        "params": {
          "data": "Additional data.",
          "from": "The sender of the token.",
          "to": "The recipient of the token.",
          "tokenID": "The id of the token."
        }
      },
      "setApprovalForAll(address,bool)": {
        "params": {
          "approved": "The determination of the approval.",
          "operator": "The address receiving the approval."
        }
      },
      "supportsInterface(bytes4)": {
        "details": "Interface identification is specified in ERC-165. This function  uses less than 30,000 gas.",
        "params": {
          "interfaceID": "The interface identifier, as specified in ERC-165"
        },
        "returns": {
          "_0": "`true` if the contract implements `interfaceID` and  `interfaceID` is not 0xffffffff, `false` otherwise"
        }
      },
      "transferFrom(address,address,uint256)": {
        "params": {
          "from": "The sender of the token.",
          "to": "The recipient of the token.",
          "tokenID": "The id of the token."
        }
      }
    },
    "version": 1
  },
  "evm": {
    "gasEstimates": {
      "creation": {
        "codeDepositCost": "1091400",
        "executionCost": "1142",
        "totalCost": "1092542"
      },
      "external": {
        "approve(address,uint256)": "53228",
        "balanceOf(address)": "2596",
        "getApproved(uint256)": "4618",
        "isApprovedForAll(address,address)": "2785",
        "mint(address,uint96)": "infinite",
        "ownerAndLastTransferBlockNumberList(uint256[])": "infinite",
        "ownerAndLastTransferBlockNumberOf(uint256)": "2529",
        "ownerOf(uint256)": "2540",
        "safeTransferFrom(address,address,uint256)": "infinite",
        "safeTransferFrom(address,address,uint256,bytes)": "infinite",
        "setApprovalForAll(address,bool)": "26589",
        "supportsInterface(bytes4)": "307",
        "transferFrom(address,address,uint256)": "79984"
      }
    }
  },
  "storageLayout": {
    "storage": [
      {
        "astId": 17221,
        "contract": "src/characters/Characters.sol:Characters",
        "label": "_owners",
        "offset": 0,
        "slot": "0",
        "type": "t_mapping(t_uint256,t_uint256)"
      },
      {
        "astId": 17225,
        "contract": "src/characters/Characters.sol:Characters",
        "label": "_balances",
        "offset": 0,
        "slot": "1",
        "type": "t_mapping(t_address,t_uint256)"
      },
      {
        "astId": 17231,
        "contract": "src/characters/Characters.sol:Characters",
        "label": "_operatorsForAll",
        "offset": 0,
        "slot": "2",
        "type": "t_mapping(t_address,t_mapping(t_address,t_bool))"
      },
      {
        "astId": 17235,
        "contract": "src/characters/Characters.sol:Characters",
        "label": "_operators",
        "offset": 0,
        "slot": "3",
        "type": "t_mapping(t_uint256,t_address)"
      }
    ],
    "types": {
      "t_address": {
        "encoding": "inplace",
        "label": "address",
        "numberOfBytes": "20"
      },
      "t_bool": {
        "encoding": "inplace",
        "label": "bool",
        "numberOfBytes": "1"
      },
      "t_mapping(t_address,t_bool)": {
        "encoding": "mapping",
        "key": "t_address",
        "label": "mapping(address => bool)",
        "numberOfBytes": "32",
        "value": "t_bool"
      },
      "t_mapping(t_address,t_mapping(t_address,t_bool))": {
        "encoding": "mapping",
        "key": "t_address",
        "label": "mapping(address => mapping(address => bool))",
        "numberOfBytes": "32",
        "value": "t_mapping(t_address,t_bool)"
      },
      "t_mapping(t_address,t_uint256)": {
        "encoding": "mapping",
        "key": "t_address",
        "label": "mapping(address => uint256)",
        "numberOfBytes": "32",
        "value": "t_uint256"
      },
      "t_mapping(t_uint256,t_address)": {
        "encoding": "mapping",
        "key": "t_uint256",
        "label": "mapping(uint256 => address)",
        "numberOfBytes": "32",
        "value": "t_address"
      },
      "t_mapping(t_uint256,t_uint256)": {
        "encoding": "mapping",
        "key": "t_uint256",
        "label": "mapping(uint256 => uint256)",
        "numberOfBytes": "32",
        "value": "t_uint256"
      },
      "t_uint256": {
        "encoding": "inplace",
        "label": "uint256",
        "numberOfBytes": "32"
      }
    }
  },
  "userdoc": {
    "errors": {
      "InvalidAddress(address)": [
        {
          "notice": "An invalid address is specified (for example: zero address)"
        }
      ],
      "NonExistentToken(uint256)": [
        {
          "notice": "The token does not exist"
        }
      ],
      "NonceOverflow()": [
        {
          "notice": "The Nonce overflowed, make a transfer to self to allow new nonces."
        }
      ],
      "NotAuthorized()": [
        {
          "notice": "Not authorized to perform this operation"
        }
      ],
      "NotOwner(address,address)": [
        {
          "notice": "The address from which the token is sent is not the current owner"
        }
      ],
      "TokenAlreadyExists(uint256)": [
        {
          "notice": "The token already exists"
        }
      ],
      "TransferRejected()": [
        {
          "notice": "The Transfer was rejected by the destination"
        }
      ]
    },
    "events": {
      "Approval(address,address,uint256)": {
        "notice": "Triggered when a token is approved to be sent by another account  Note tat the approval get reset when a Transfer event for that same token is emitted."
      },
      "ApprovalForAll(address,address,bool)": {
        "notice": "Triggered when an account approve or disaprove another to transfer on its behalf"
      },
      "Transfer(address,address,uint256)": {
        "notice": "Triggered when a token is transferred"
      }
    },
    "kind": "user",
    "methods": {
      "approve(address,uint256)": {
        "notice": "Approve an operator to transfer a specific token on the senders behalf."
      },
      "balanceOf(address)": {
        "notice": "Get the number of tokens owned by an address."
      },
      "getApproved(uint256)": {
        "notice": "Get the approved operator for a specific token."
      },
      "isApprovedForAll(address,address)": {
        "notice": "Check if the sender approved the operator to transfer any of its tokens."
      },
      "ownerAndLastTransferBlockNumberList(uint256[])": {
        "notice": "Get the list of owner of a token and the blockNumber of its last transfer, useful to voting mechanism."
      },
      "ownerAndLastTransferBlockNumberOf(uint256)": {
        "notice": "Get the owner of a token and the blockNumber of the last transfer, useful to voting mechanism."
      },
      "ownerOf(uint256)": {
        "notice": "Get the owner of a token."
      },
      "safeTransferFrom(address,address,uint256)": {
        "notice": "Transfer a token between 2 addresses letting the receiver know of the transfer."
      },
      "safeTransferFrom(address,address,uint256,bytes)": {
        "notice": "Transfer a token between 2 addresses letting the receiver knows of the transfer."
      },
      "setApprovalForAll(address,bool)": {
        "notice": "Set the approval for an operator to manage all the tokens of the sender."
      },
      "supportsInterface(bytes4)": {
        "notice": "Query if a contract implements an interface"
      },
      "transferFrom(address,address,uint256)": {
        "notice": "Transfer a token between 2 addresses."
      }
    },
    "version": 1
  },
  "argsData": "0x",
  "transaction": {
    "hash": "0x9e0cb5ff96a84f70b2557f5f1d70815da0f4bd1f6f8d3c6b76ea6604be3f9110",
    "nonce": "0x1c9",
    "origin": "0x61c461ecc993aadeb7e4b47e96d1b8cc37314b20"
  }
}