{
  "address": "0x77516faf2985322dfff4db9274d9a3d053256d7d",
  "abi": [
    {
      "inputs": [
        {
          "internalType": "address",
          "name": "addr",
          "type": "address"
        }
      ],
      "name": "InvalidAddress",
      "type": "error"
    },
    {
      "inputs": [
        {
          "internalType": "uint256",
          "name": "tokenID",
          "type": "uint256"
        }
      ],
      "name": "NonExistentToken",
      "type": "error"
    },
    {
      "inputs": [],
      "name": "NonceOverflow",
      "type": "error"
    },
    {
      "inputs": [],
      "name": "NotAuthorized",
      "type": "error"
    },
    {
      "inputs": [
        {
          "internalType": "address",
          "name": "provided",
          "type": "address"
        },
        {
          "internalType": "address",
          "name": "currentOwner",
          "type": "address"
        }
      ],
      "name": "NotOwner",
      "type": "error"
    },
    {
      "inputs": [
        {
          "internalType": "uint256",
          "name": "tokenID",
          "type": "uint256"
        }
      ],
      "name": "TokenAlreadyExists",
      "type": "error"
    },
    {
      "inputs": [],
      "name": "TransferRejected",
      "type": "error"
    },
    {
      "anonymous": false,
      "inputs": [
        {
          "indexed": true,
          "internalType": "address",
          "name": "owner",
          "type": "address"
        },
        {
          "indexed": true,
          "internalType": "address",
          "name": "approved",
          "type": "address"
        },
        {
          "indexed": true,
          "internalType": "uint256",
          "name": "tokenID",
          "type": "uint256"
        }
      ],
      "name": "Approval",
      "type": "event"
    },
    {
      "anonymous": false,
      "inputs": [
        {
          "indexed": true,
          "internalType": "address",
          "name": "owner",
          "type": "address"
        },
        {
          "indexed": true,
          "internalType": "address",
          "name": "operator",
          "type": "address"
        },
        {
          "indexed": false,
          "internalType": "bool",
          "name": "approved",
          "type": "bool"
        }
      ],
      "name": "ApprovalForAll",
      "type": "event"
    },
    {
      "anonymous": false,
      "inputs": [
        {
          "indexed": true,
          "internalType": "address",
          "name": "from",
          "type": "address"
        },
        {
          "indexed": true,
          "internalType": "address",
          "name": "to",
          "type": "address"
        },
        {
          "indexed": true,
          "internalType": "uint256",
          "name": "tokenID",
          "type": "uint256"
        }
      ],
      "name": "Transfer",
      "type": "event"
    },
    {
      "inputs": [
        {
          "internalType": "address",
          "name": "operator",
          "type": "address"
        },
        {
          "internalType": "uint256",
          "name": "tokenID",
          "type": "uint256"
        }
      ],
      "name": "approve",
      "outputs": [],
      "stateMutability": "nonpayable",
      "type": "function"
    },
    {
      "inputs": [
        {
          "internalType": "address",
          "name": "owner",
          "type": "address"
        }
      ],
      "name": "balanceOf",
      "outputs": [
        {
          "internalType": "uint256",
          "name": "balance",
          "type": "uint256"
        }
      ],
      "stateMutability": "view",
      "type": "function"
    },
    {
      "inputs": [
        {
          "internalType": "uint256",
          "name": "tokenID",
          "type": "uint256"
        }
      ],
      "name": "getApproved",
      "outputs": [
        {
          "internalType": "address",
          "name": "operator",
          "type": "address"
        }
      ],
      "stateMutability": "view",
      "type": "function"
    },
    {
      "inputs": [
        {
          "internalType": "address",
          "name": "owner",
          "type": "address"
        },
        {
          "internalType": "address",
          "name": "operator",
          "type": "address"
        }
      ],
      "name": "isApprovedForAll",
      "outputs": [
        {
          "internalType": "bool",
          "name": "isOperator",
          "type": "bool"
        }
      ],
      "stateMutability": "view",
      "type": "function"
    },
    {
      "inputs": [
        {
          "internalType": "address",
          "name": "to",
          "type": "address"
        },
        {
          "internalType": "uint96",
          "name": "data",
          "type": "uint96"
        }
      ],
      "name": "mint",
      "outputs": [],
      "stateMutability": "nonpayable",
      "type": "function"
    },
    {
      "inputs": [
        {
          "internalType": "uint256[]",
          "name": "tokenIDs",
          "type": "uint256[]"
        }
      ],
      "name": "ownerAndLastTransferBlockNumberList",
      "outputs": [
        {
          "components": [
            {
              "internalType": "address",
              "name": "owner",
              "type": "address"
            },
            {
              "internalType": "uint256",
              "name": "lastTransferBlockNumber",
              "type": "uint256"
            }
          ],
          "internalType": "struct IERC721WithBlocknumber.OwnerData[]",
          "name": "ownersData",
          "type": "tuple[]"
        }
      ],
      "stateMutability": "view",
      "type": "function"
    },
    {
      "inputs": [
        {
          "internalType": "uint256",
          "name": "tokenID",
          "type": "uint256"
        }
      ],
      "name": "ownerAndLastTransferBlockNumberOf",
      "outputs": [
        {
          "internalType": "address",
          "name": "owner",
          "type": "address"
        },
        {
          "internalType": "uint256",
          "name": "blockNumber",
          "type": "uint256"
        }
      ],
      "stateMutability": "view",
      "type": "function"
    },
    {
      "inputs": [
        {
          "internalType": "uint256",
          "name": "tokenID",
          "type": "uint256"
        }
      ],
      "name": "ownerOf",
      "outputs": [
        {
          "internalType": "address",
          "name": "owner",
          "type": "address"
        }
      ],
      "stateMutability": "view",
      "type": "function"
    },
    {
      "inputs": [
        {
          "internalType": "address",
          "name": "from",
          "type": "address"
        },
        {
          "internalType": "address",
          "name": "to",
          "type": "address"
        },
        {
          "internalType": "uint256",
          "name": "tokenID",
          "type": "uint256"
        }
      ],
      "name": "safeTransferFrom",
      "outputs": [],
      "stateMutability": "nonpayable",
      "type": "function"
    },
    {
      "inputs": [
        {
          "internalType": "address",
          "name": "from",
          "type": "address"
        },
        {
          "internalType": "address",
          "name": "to",
          "type": "address"
        },
        {
          "internalType": "uint256",
          "name": "tokenID",
          "type": "uint256"
        },
        {
          "internalType": "bytes",
          "name": "data",
          "type": "bytes"
        }
      ],
      "name": "safeTransferFrom",
      "outputs": [],
      "stateMutability": "nonpayable",
      "type": "function"
    },
    {
      "inputs": [
        {
          "internalType": "address",
          "name": "operator",
          "type": "address"
        },
        {
          "internalType": "bool",
          "name": "approved",
          "type": "bool"
        }
      ],
      "name": "setApprovalForAll",
      "outputs": [],
      "stateMutability": "nonpayable",
      "type": "function"
    },
    {
      "inputs": [
        {
          "internalType": "bytes4",
          "name": "interfaceID",
          "type": "bytes4"
        }
      ],
      "name": "supportsInterface",
      "outputs": [
        {
          "internalType": "bool",
          "name": "",
          "type": "bool"
        }
      ],
      "stateMutability": "view",
      "type": "function"
    },
    {
      "inputs": [
        {
          "internalType": "address",
          "name": "from",
          "type": "address"
        },
        {
          "internalType": "address",
          "name": "to",
          "type": "address"
        },
        {
          "internalType": "uint256",
          "name": "tokenID",
          "type": "uint256"
        }
      ],
      "name": "transferFrom",
      "outputs": [],
      "stateMutability": "nonpayable",
      "type": "function"
    }
  ],
  "contractName": "Characters",
  "sourceName": "src/characters/Characters.sol",
  "linkReferences": {},
  "deployedLinkReferences": {},
  "devdoc": {
    "errors": {
      "InvalidAddress(address)": [
        {
          "params": {
            "addr": "invalid address"
          }
        }
      ],
      "NonExistentToken(uint256)": [
        {
          "params": {
            "tokenID": "id of the expected token"
          }
        }
      ],
      "NotOwner(address,address)": [
        {
          "params": {
            "currentOwner": "the current owner",
            "provided": "the address expected to be the current owner"
          }
        }
      ],
      "TokenAlreadyExists(uint256)": [
        {
          "params": {
            "tokenID": "id of the token to create"
          }
        }
      ]
    },
    "events": {
      "Approval(address,address,uint256)": {
        "params": {
          "approved": "account who can know transfer on the owner's behalf",
          "owner": "current owner of the token",
          "tokenID": "id of the token being approved"
        }
      },
      "ApprovalForAll(address,address,bool)": {
        "params": {
          "approved": "whether it is approved or not",
          "operator": "account who can know transfer on the owner's behalf",
          "owner": "the account granting rights over all of its token"
        }
      },
      "Transfer(address,address,uint256)": {
        "params": {
          "from": "the account the token is sent from",
          "to": "the account the token is sent to",
          "tokenID": "id of the token being sent"
        }
      }
    },
    "kind": "dev",
    "methods": {
      "approve(address,uint256)": {
        "params": {
          "operator": "The address receiving the approval.",
          "tokenID": "The id of the token."
        }
      },
      "balanceOf(address)": {
        "params": {
          "owner": "The address to look for."
        },
        "returns": {
          "balance": "The number of tokens owned by the address."
        }
      },
      "getApproved(uint256)": {
        "params": {
          "tokenID": "The id of the token."
        },
        "returns": {
          "operator": "The address of the operator."
        }
      },
      "isApprovedForAll(address,address)": {
        "params": {
          "operator": "The address of the operator.",
          "owner": "The address of the owner."
        },
        "returns": {
          "isOperator": "The status of the approval."
        }
      },
      "ownerAndLastTransferBlockNumberList(uint256[])": {
        "params": {
          "tokenIDs": "The list of token ids to check."
        },
        "returns": {
          "ownersData": "The list of (owner, lastTransferBlockNumber) for each ids given as input."
        }
      },
      "ownerAndLastTransferBlockNumberOf(uint256)": {
        "params": {
          "tokenID": "The id of the token."
        },
        "returns": {
          "blockNumber": "The blocknumber at which the last transfer of that id happened.",
          "owner": "The address of the token owner."
        }
      },
      "ownerOf(uint256)": {
        "params": {
          "tokenID": "The id of the token."
        },
        "returns": {
          "owner": "The address of the token owner."
        }
      },
      "safeTransferFrom(address,address,uint256)": {
        "params": {
          "from": "The send of the token.",
          "to": "The recipient of the token.",
          "tokenID": "The id of the token."
        }
      },
      "safeTransferFrom(address,address,uint256,bytes)": {
        "params": {
          "data": "Additional data.",
          "from": "The sender of the token.",
          "to": "The recipient of the token.",
          "tokenID": "The id of the token."
        }
      },
      "setApprovalForAll(address,bool)": {
        "params": {
          "approved": "The determination of the approval.",
          "operator": "The address receiving the approval."
        }
      },
      "supportsInterface(bytes4)": {
        "details": "Interface identification is specified in ERC-165. This function  uses less than 30,000 gas.",
        "params": {
          "interfaceID": "The interface identifier, as specified in ERC-165"
        },
        "returns": {
          "_0": "`true` if the contract implements `interfaceID` and  `interfaceID` is not 0xffffffff, `false` otherwise"
        }
      },
      "transferFrom(address,address,uint256)": {
        "params": {
          "from": "The sender of the token.",
          "to": "The recipient of the token.",
          "tokenID": "The id of the token."
        }
      }
    },
    "version": 1
  },
  "evm": {
    "bytecode": {
      "linkReferences": {},
      "object": "60808060405234601557611551908161001a8239f35b5f80fdfe608060409080825260049081361015610016575f80fd5b5f3560e01c90816301ffc9a714610ddd57508063081812fc14610d83578063095ea7b314610b595780631b025a40146108b757806323b872dd146106b457806342842e0e1461068c57806348f3c51c146105fb5780636352211e1461056757806370a08231146104cf578063a22cb46514610406578063b88d4fde1461030c578063e985e9c5146102925763f3945282146100af575f80fd5b3461028e57602091827ffffffffffffffffffffffffffffffffffffffffffffffffffffffffffffffffc36011261028e57813567ffffffffffffffff80821161028e573660238301121561028e57818401359181831161028e5760249060053660248660051b8401011161028e5761012a8598979698611421565b9561013789519788610fb8565b8587527fffffffffffffffffffffffffffffffffffffffffffffffffffffffffffffffe061016487611421565b01905f5b828110610235575050505f5b8581106101dd5788518881528751818a018190528190818c01908a8c01908c5f8f5b8382106101a35786860387f35b8451805173ffffffffffffffffffffffffffffffffffffffff16875283015186840152879650948501949382019360019190910190610196565b8084600192849b999a9b1b850101355f525f8a5285885f205473ffffffffffffffffffffffffffffffffffffffff8116610217848d611439565b515260b81c168a610228838c611439565b5101520197969597610174565b8a98999a5189810181811089821117610263578a525f8082528c8201528a82018c0152979998978901610168565b876041857f4e487b71000000000000000000000000000000000000000000000000000000005f52525ffd5b5f80fd5b823461028e57807ffffffffffffffffffffffffffffffffffffffffffffffffffffffffffffffffc36011261028e576020906102cc610ec9565b6102d4610eec565b9073ffffffffffffffffffffffffffffffffffffffff8091165f5260028452825f2091165f52825260ff815f20541690519015158152f35b503461028e5760807ffffffffffffffffffffffffffffffffffffffffffffffffffffffffffffffffc36011261028e57610344610ec9565b61034c610eec565b6064359367ffffffffffffffff9384861161028e573660238701121561028e57858101359485116103da575051926103ac60207fffffffffffffffffffffffffffffffffffffffffffffffffffffffffffffffe0601f8401160185610fb8565b808452366024828701011161028e576020815f9260246103d89801838801378501015260443591611094565b005b6041907f4e487b71000000000000000000000000000000000000000000000000000000005f525260245ffd5b823461028e57807ffffffffffffffffffffffffffffffffffffffffffffffffffffffffffffffffc36011261028e5761043d610ec9565b906024359081151580920361028e57335f52600260205273ffffffffffffffffffffffffffffffffffffffff815f20931692835f52602052805f207fffffffffffffffffffffffffffffffffffffffffffffffffffffffffffffff0081541660ff8416179055519081527f17307eab39ab6107e8899845ad3d59bd9653f200f220920489ca2b5937696c3160203392a3005b50903461028e5760207ffffffffffffffffffffffffffffffffffffffffffffffffffffffffffffffffc36011261028e5773ffffffffffffffffffffffffffffffffffffffff61051d610ec9565b16801561053957602092505f5260018252805f20549051908152f35b6024929151917f8e4c8aa6000000000000000000000000000000000000000000000000000000008352820152fd5b503461028e5760207ffffffffffffffffffffffffffffffffffffffffffffffffffffffffffffffffc36011261028e57803590815f525f60205273ffffffffffffffffffffffffffffffffffffffff835f2054169182156105cc576020838551908152f35b602492508351917f38077a2b000000000000000000000000000000000000000000000000000000008352820152fd5b503461028e5760207ffffffffffffffffffffffffffffffffffffffffffffffffffffffffffffffffc36011261028e5761066790355f525f60205260405f2054906affffffffffffffffffffff73ffffffffffffffffffffffffffffffffffffffff83169260a01c1690565b73ffffffffffffffffffffffffffffffffffffffff83519216825260181c6020820152f35b823461028e576103d89061069f36610f0f565b919251926106ac84610f6f565b5f8452611094565b50903461028e576106c436610f0f565b9192610727835f525f60205260405f20549073ffffffffffffffffffffffffffffffffffffffff8216916affffffffffffffffffffff7f8000000000000000000000000000000000000000000000000000000000000000808316149160a01c1691565b73ffffffffffffffffffffffffffffffffffffffff939291938083169283156108885781891693840361083457508086168015801561082b575b6107fc5750823303610780575b6103d88888888860181c15159261147a565b816107e4575b501590816107c4575b5061079c5780808061076e565b8590517fea8e4eb5000000000000000000000000000000000000000000000000000000008152fd5b90505f526002602052805f20335f5260205260ff815f205416155f61078f565b9050855f5260036020523390835f205416145f610786565b896024918651917f8e4c8aa6000000000000000000000000000000000000000000000000000000008352820152fd5b50308114610761565b84517f23295f0e00000000000000000000000000000000000000000000000000000000815273ffffffffffffffffffffffffffffffffffffffff808b16828d01908152921660208301529081906040010390fd5b60248a898751917f38077a2b000000000000000000000000000000000000000000000000000000008352820152fd5b50903461028e57807ffffffffffffffffffffffffffffffffffffffffffffffffffffffffffffffffc36011261028e576108ef610ec9565b6024356bffffffffffffffffffffffff811680910361028e577f0ffffffffffffffffffffffffffffffffffffffff0000000000000000000000082605c1b161790815f5260205f815273ffffffffffffffffffffffffffffffffffffffff80855f205416610b2a5784519061096382610f6f565b5f8252831692835f5260018352855f2060018154019055845f525f8352834360b81b17865f205584845f7fddf252ad1be2c89b69c2b068fc378daa952ba7f163c4a11628f55a4df523b3ef8180a43b6109b857005b81601f9381925f60a48a987fffffffffffffffffffffffffffffffffffffffffffffffffffffffffffffffe08b51998a97889687947f150b7a02000000000000000000000000000000000000000000000000000000009e8f875233908701528760248701526044860152608060648601528051918291826084880152018686015e85858286010152011681010301925af1908115610b20575f91610aa9575b507fffffffff0000000000000000000000000000000000000000000000000000000091501603610a8357005b517f4e472e5e000000000000000000000000000000000000000000000000000000008152fd5b905081813d8311610b19575b610abf8183610fb8565b8101031261028e57517fffffffff000000000000000000000000000000000000000000000000000000008116810361028e577fffffffff00000000000000000000000000000000000000000000000000000000905f610a57565b503d610ab5565b84513d5f823e3d90fd5b602486858751917f6025413b000000000000000000000000000000000000000000000000000000008352820152fd5b503461028e57817ffffffffffffffffffffffffffffffffffffffffffffffffffffffffffffffffc36011261028e57610b90610ec9565b9060243592610bd0845f525f60205260405f2054906affffffffffffffffffffff73ffffffffffffffffffffffffffffffffffffffff83169260a01c1690565b9373ffffffffffffffffffffffffffffffffffffffff809216938415610d54578433141580610d35575b610d0e576001860195868111610ce25760181c8660181c03610cbb57501692829084610c5657855f525f60205260a01b17905f20555b7f8c5be1e5ebec7d5bd14f71427d1e84f3dd0314c0f7b2291e5b200ac8c7c3b9255f80a4005b855f525f60205260a01b177f800000000000000000000000000000000000000000000000000000000000000017815f205560036020525f20827fffffffffffffffffffffffff0000000000000000000000000000000000000000825416179055610c30565b83517fadc15572000000000000000000000000000000000000000000000000000000008152fd5b6011827f4e487b71000000000000000000000000000000000000000000000000000000005f525260245ffd5b83517fea8e4eb5000000000000000000000000000000000000000000000000000000008152fd5b50845f526002602052835f20335f5260205260ff845f20541615610bfa565b602490878551917f38077a2b000000000000000000000000000000000000000000000000000000008352820152fd5b50903461028e5760207ffffffffffffffffffffffffffffffffffffffffffffffffffffffffffffffffc36011261028e5773ffffffffffffffffffffffffffffffffffffffff610dd560209335610ff9565b915191168152f35b823461028e5760207ffffffffffffffffffffffffffffffffffffffffffffffffffffffffffffffffc36011261028e5735907fffffffff00000000000000000000000000000000000000000000000000000000821680920361028e57817f01ffc9a70000000000000000000000000000000000000000000000000000000060209314908115610e9f575b8115610e75575b5015158152f35b7f5b5e139f0000000000000000000000000000000000000000000000000000000091501483610e6e565b7f80ac58cd0000000000000000000000000000000000000000000000000000000081149150610e67565b6004359073ffffffffffffffffffffffffffffffffffffffff8216820361028e57565b6024359073ffffffffffffffffffffffffffffffffffffffff8216820361028e57565b7ffffffffffffffffffffffffffffffffffffffffffffffffffffffffffffffffc606091011261028e5773ffffffffffffffffffffffffffffffffffffffff90600435828116810361028e5791602435908116810361028e579060443590565b6020810190811067ffffffffffffffff821117610f8b57604052565b7f4e487b71000000000000000000000000000000000000000000000000000000005f52604160045260245ffd5b90601f7fffffffffffffffffffffffffffffffffffffffffffffffffffffffffffffffe0910116810190811067ffffffffffffffff821117610f8b57604052565b805f525f60205260405f20549073ffffffffffffffffffffffffffffffffffffffff917f800000000000000000000000000000000000000000000000000000000000000090838116156110635781160361105d575f52600360205260405f20541690565b50505f90565b602483604051907f38077a2b0000000000000000000000000000000000000000000000000000000082526004820152fd5b9290916110f8815f525f60205260405f20549073ffffffffffffffffffffffffffffffffffffffff8216916affffffffffffffffffffff7f8000000000000000000000000000000000000000000000000000000000000000808316149160a01c1691565b94919573ffffffffffffffffffffffffffffffffffffffff958688169788156113f05787831680990361139f57508684169687158015611396575b61136557859185918a33036112e1575b50506111549360181c15159261147a565b3b611160575b50505050565b601f926020925f60a485947fffffffffffffffffffffffffffffffffffffffffffffffffffffffffffffffe0604051988997889687947f150b7a02000000000000000000000000000000000000000000000000000000009d8e875233600488015260248701526044860152608060648601528051918291826084880152018686015e85858286010152011681010301925af180156112d6575f9061125b575b7fffffffff0000000000000000000000000000000000000000000000000000000091501603611231575f80808061115a565b60046040517f4e472e5e000000000000000000000000000000000000000000000000000000008152fd5b506020813d6020116112ce575b8161127560209383610fb8565b8101031261028e57517fffffffff000000000000000000000000000000000000000000000000000000008116810361028e577fffffffff00000000000000000000000000000000000000000000000000000000906111ff565b3d9150611268565b6040513d5f823e3d90fd5b91508092509161134c575b50158061132b575b6113015783835f80611143565b60046040517fea8e4eb5000000000000000000000000000000000000000000000000000000008152fd5b50865f52600260205260405f20335f5260205260ff60405f205416156112f4565b9050845f526003602052339060405f205416145f6112ec565b602488604051907f8e4c8aa60000000000000000000000000000000000000000000000000000000082526004820152fd5b50308814611133565b6040517f23295f0e00000000000000000000000000000000000000000000000000000000815273ffffffffffffffffffffffffffffffffffffffff8481166004830152919091166024820152604490fd5b602486604051907f38077a2b0000000000000000000000000000000000000000000000000000000082526004820152fd5b67ffffffffffffffff8111610f8b5760051b60200190565b805182101561144d5760209160051b010190565b7f4e487b71000000000000000000000000000000000000000000000000000000005f52603260045260245ffd5b92919273ffffffffffffffffffffffffffffffffffffffff80921692835f52600160205260405f20600181540190556114e7575b835f525f602052824360b81b1760405f2055167fddf252ad1be2c89b69c2b068fc378daa952ba7f163c4a11628f55a4df523b3ef5f80a4565b8181165f5260405f207fffffffffffffffffffffffffffffffffffffffffffffffffffffffffffffffff81540190556114ae56fea26469706673582212207702389803f34ac284c319a65a14d6fab135c0a8b585173672ef7e1500065ce964736f6c63430008190033",
      "opcodes": "PUSH1 0x80 DUP1 PUSH1 0x40 MSTORE CALLVALUE PUSH1 0x15 JUMPI PUSH2 0x1551 SWAP1 DUP2 PUSH2 0x1A DUP3 CODECOPY RETURN JUMPDEST PUSH0 DUP1 REVERT INVALID PUSH1 0x80 PUSH1 0x40 SWAP1 DUP1 DUP3 MSTORE PUSH1 0x4 SWAP1 DUP2 CALLDATASIZE LT ISZERO PUSH2 0x16 JUMPI PUSH0 DUP1 REVERT JUMPDEST PUSH0 CALLDATALOAD PUSH1 0xE0 SHR SWAP1 DUP2 PUSH4 0x1FFC9A7 EQ PUSH2 0xDDD JUMPI POP DUP1 PUSH4 0x81812FC EQ PUSH2 0xD83 JUMPI DUP1 PUSH4 0x95EA7B3 EQ PUSH2 0xB59 JUMPI DUP1 PUSH4 0x1B025A40 EQ PUSH2 0x8B7 JUMPI DUP1 PUSH4 0x23B872DD EQ PUSH2 0x6B4 JUMPI DUP1 PUSH4 0x42842E0E EQ PUSH2 0x68C JUMPI DUP1 PUSH4 0x48F3C51C EQ PUSH2 0x5FB JUMPI DUP1 PUSH4 0x6352211E EQ PUSH2 0x567 JUMPI DUP1 PUSH4 0x70A08231 EQ PUSH2 0x4CF JUMPI DUP1 PUSH4 0xA22CB465 EQ PUSH2 0x406 JUMPI DUP1 PUSH4 0xB88D4FDE EQ PUSH2 0x30C JUMPI DUP1 PUSH4 0xE985E9C5 EQ PUSH2 0x292 JUMPI PUSH4 0xF3945282 EQ PUSH2 0xAF JUMPI PUSH0 DUP1 REVERT JUMPDEST CALLVALUE PUSH2 0x28E JUMPI PUSH1 0x20 SWAP2 DUP3 PUSH32 0xFFFFFFFFFFFFFFFFFFFFFFFFFFFFFFFFFFFFFFFFFFFFFFFFFFFFFFFFFFFFFFFC CALLDATASIZE ADD SLT PUSH2 0x28E JUMPI DUP2 CALLDATALOAD PUSH8 0xFFFFFFFFFFFFFFFF DUP1 DUP3 GT PUSH2 0x28E JUMPI CALLDATASIZE PUSH1 0x23 DUP4 ADD SLT ISZERO PUSH2 0x28E JUMPI DUP2 DUP5 ADD CALLDATALOAD SWAP2 DUP2 DUP4 GT PUSH2 0x28E JUMPI PUSH1 0x24 SWAP1 PUSH1 0x5 CALLDATASIZE PUSH1 0x24 DUP7 PUSH1 0x5 SHL DUP5 ADD ADD GT PUSH2 0x28E JUMPI PUSH2 0x12A DUP6 SWAP9 SWAP8 SWAP7 SWAP9 PUSH2 0x1421 JUMP JUMPDEST SWAP6 PUSH2 0x137 DUP10 MLOAD SWAP8 DUP9 PUSH2 0xFB8 JUMP JUMPDEST DUP6 DUP8 MSTORE PUSH32 0xFFFFFFFFFFFFFFFFFFFFFFFFFFFFFFFFFFFFFFFFFFFFFFFFFFFFFFFFFFFFFFE0 PUSH2 0x164 DUP8 PUSH2 0x1421 JUMP JUMPDEST ADD SWAP1 PUSH0 JUMPDEST DUP3 DUP2 LT PUSH2 0x235 JUMPI POP POP POP PUSH0 JUMPDEST DUP6 DUP2 LT PUSH2 0x1DD JUMPI DUP9 MLOAD DUP9 DUP2 MSTORE DUP8 MLOAD DUP2 DUP11 ADD DUP2 SWAP1 MSTORE DUP2 SWAP1 DUP2 DUP13 ADD SWAP1 DUP11 DUP13 ADD SWAP1 DUP13 PUSH0 DUP16 JUMPDEST DUP4 DUP3 LT PUSH2 0x1A3 JUMPI DUP7 DUP7 SUB DUP8 RETURN JUMPDEST DUP5 MLOAD DUP1 MLOAD PUSH20 0xFFFFFFFFFFFFFFFFFFFFFFFFFFFFFFFFFFFFFFFF AND DUP8 MSTORE DUP4 ADD MLOAD DUP7 DUP5 ADD MSTORE DUP8 SWAP7 POP SWAP5 DUP6 ADD SWAP5 SWAP4 DUP3 ADD SWAP4 PUSH1 0x1 SWAP2 SWAP1 SWAP2 ADD SWAP1 PUSH2 0x196 JUMP JUMPDEST DUP1 DUP5 PUSH1 0x1 SWAP3 DUP5 SWAP12 SWAP10 SWAP11 SWAP12 SHL DUP6 ADD ADD CALLDATALOAD PUSH0 MSTORE PUSH0 DUP11 MSTORE DUP6 DUP9 PUSH0 KECCAK256 SLOAD PUSH20 0xFFFFFFFFFFFFFFFFFFFFFFFFFFFFFFFFFFFFFFFF DUP2 AND PUSH2 0x217 DUP5 DUP14 PUSH2 0x1439 JUMP JUMPDEST MLOAD MSTORE PUSH1 0xB8 SHR AND DUP11 PUSH2 0x228 DUP4 DUP13 PUSH2 0x1439 JUMP JUMPDEST MLOAD ADD MSTORE ADD SWAP8 SWAP7 SWAP6 SWAP8 PUSH2 0x174 JUMP JUMPDEST DUP11 SWAP9 SWAP10 SWAP11 MLOAD DUP10 DUP2 ADD DUP2 DUP2 LT DUP10 DUP3 GT OR PUSH2 0x263 JUMPI DUP11 MSTORE PUSH0 DUP1 DUP3 MSTORE DUP13 DUP3 ADD MSTORE DUP11 DUP3 ADD DUP13 ADD MSTORE SWAP8 SWAP10 SWAP9 SWAP8 DUP10 ADD PUSH2 0x168 JUMP JUMPDEST DUP8 PUSH1 0x41 DUP6 PUSH32 0x4E487B7100000000000000000000000000000000000000000000000000000000 PUSH0 MSTORE MSTORE PUSH0 REVERT JUMPDEST PUSH0 DUP1 REVERT JUMPDEST DUP3 CALLVALUE PUSH2 0x28E JUMPI DUP1 PUSH32 0xFFFFFFFFFFFFFFFFFFFFFFFFFFFFFFFFFFFFFFFFFFFFFFFFFFFFFFFFFFFFFFFC CALLDATASIZE ADD SLT PUSH2 0x28E JUMPI PUSH1 0x20 SWAP1 PUSH2 0x2CC PUSH2 0xEC9 JUMP JUMPDEST PUSH2 0x2D4 PUSH2 0xEEC JUMP JUMPDEST SWAP1 PUSH20 0xFFFFFFFFFFFFFFFFFFFFFFFFFFFFFFFFFFFFFFFF DUP1 SWAP2 AND PUSH0 MSTORE PUSH1 0x2 DUP5 MSTORE DUP3 PUSH0 KECCAK256 SWAP2 AND PUSH0 MSTORE DUP3 MSTORE PUSH1 0xFF DUP2 PUSH0 KECCAK256 SLOAD AND SWAP1 MLOAD SWAP1 ISZERO ISZERO DUP2 MSTORE RETURN JUMPDEST POP CALLVALUE PUSH2 0x28E JUMPI PUSH1 0x80 PUSH32 0xFFFFFFFFFFFFFFFFFFFFFFFFFFFFFFFFFFFFFFFFFFFFFFFFFFFFFFFFFFFFFFFC CALLDATASIZE ADD SLT PUSH2 0x28E JUMPI PUSH2 0x344 PUSH2 0xEC9 JUMP JUMPDEST PUSH2 0x34C PUSH2 0xEEC JUMP JUMPDEST PUSH1 0x64 CALLDATALOAD SWAP4 PUSH8 0xFFFFFFFFFFFFFFFF SWAP4 DUP5 DUP7 GT PUSH2 0x28E JUMPI CALLDATASIZE PUSH1 0x23 DUP8 ADD SLT ISZERO PUSH2 0x28E JUMPI DUP6 DUP2 ADD CALLDATALOAD SWAP5 DUP6 GT PUSH2 0x3DA JUMPI POP MLOAD SWAP3 PUSH2 0x3AC PUSH1 0x20 PUSH32 0xFFFFFFFFFFFFFFFFFFFFFFFFFFFFFFFFFFFFFFFFFFFFFFFFFFFFFFFFFFFFFFE0 PUSH1 0x1F DUP5 ADD AND ADD DUP6 PUSH2 0xFB8 JUMP JUMPDEST DUP1 DUP5 MSTORE CALLDATASIZE PUSH1 0x24 DUP3 DUP8 ADD ADD GT PUSH2 0x28E JUMPI PUSH1 0x20 DUP2 PUSH0 SWAP3 PUSH1 0x24 PUSH2 0x3D8 SWAP9 ADD DUP4 DUP9 ADD CALLDATACOPY DUP6 ADD ADD MSTORE PUSH1 0x44 CALLDATALOAD SWAP2 PUSH2 0x1094 JUMP JUMPDEST STOP JUMPDEST PUSH1 0x41 SWAP1 PUSH32 0x4E487B7100000000000000000000000000000000000000000000000000000000 PUSH0 MSTORE MSTORE PUSH1 0x24 PUSH0 REVERT JUMPDEST DUP3 CALLVALUE PUSH2 0x28E JUMPI DUP1 PUSH32 0xFFFFFFFFFFFFFFFFFFFFFFFFFFFFFFFFFFFFFFFFFFFFFFFFFFFFFFFFFFFFFFFC CALLDATASIZE ADD SLT PUSH2 0x28E JUMPI PUSH2 0x43D PUSH2 0xEC9 JUMP JUMPDEST SWAP1 PUSH1 0x24 CALLDATALOAD SWAP1 DUP2 ISZERO ISZERO DUP1 SWAP3 SUB PUSH2 0x28E JUMPI CALLER PUSH0 MSTORE PUSH1 0x2 PUSH1 0x20 MSTORE PUSH20 0xFFFFFFFFFFFFFFFFFFFFFFFFFFFFFFFFFFFFFFFF DUP2 PUSH0 KECCAK256 SWAP4 AND SWAP3 DUP4 PUSH0 MSTORE PUSH1 0x20 MSTORE DUP1 PUSH0 KECCAK256 PUSH32 0xFFFFFFFFFFFFFFFFFFFFFFFFFFFFFFFFFFFFFFFFFFFFFFFFFFFFFFFFFFFFFF00 DUP2 SLOAD AND PUSH1 0xFF DUP5 AND OR SWAP1 SSTORE MLOAD SWAP1 DUP2 MSTORE PUSH32 0x17307EAB39AB6107E8899845AD3D59BD9653F200F220920489CA2B5937696C31 PUSH1 0x20 CALLER SWAP3 LOG3 STOP JUMPDEST POP SWAP1 CALLVALUE PUSH2 0x28E JUMPI PUSH1 0x20 PUSH32 0xFFFFFFFFFFFFFFFFFFFFFFFFFFFFFFFFFFFFFFFFFFFFFFFFFFFFFFFFFFFFFFFC CALLDATASIZE ADD SLT PUSH2 0x28E JUMPI PUSH20 0xFFFFFFFFFFFFFFFFFFFFFFFFFFFFFFFFFFFFFFFF PUSH2 0x51D PUSH2 0xEC9 JUMP JUMPDEST AND DUP1 ISZERO PUSH2 0x539 JUMPI PUSH1 0x20 SWAP3 POP PUSH0 MSTORE PUSH1 0x1 DUP3 MSTORE DUP1 PUSH0 KECCAK256 SLOAD SWAP1 MLOAD SWAP1 DUP2 MSTORE RETURN JUMPDEST PUSH1 0x24 SWAP3 SWAP2 MLOAD SWAP2 PUSH32 0x8E4C8AA600000000000000000000000000000000000000000000000000000000 DUP4 MSTORE DUP3 ADD MSTORE REVERT JUMPDEST POP CALLVALUE PUSH2 0x28E JUMPI PUSH1 0x20 PUSH32 0xFFFFFFFFFFFFFFFFFFFFFFFFFFFFFFFFFFFFFFFFFFFFFFFFFFFFFFFFFFFFFFFC CALLDATASIZE ADD SLT PUSH2 0x28E JUMPI DUP1 CALLDATALOAD SWAP1 DUP2 PUSH0 MSTORE PUSH0 PUSH1 0x20 MSTORE PUSH20 0xFFFFFFFFFFFFFFFFFFFFFFFFFFFFFFFFFFFFFFFF DUP4 PUSH0 KECCAK256 SLOAD AND SWAP2 DUP3 ISZERO PUSH2 0x5CC JUMPI PUSH1 0x20 DUP4 DUP6 MLOAD SWAP1 DUP2 MSTORE RETURN JUMPDEST PUSH1 0x24 SWAP3 POP DUP4 MLOAD SWAP2 PUSH32 0x38077A2B00000000000000000000000000000000000000000000000000000000 DUP4 MSTORE DUP3 ADD MSTORE REVERT JUMPDEST POP CALLVALUE PUSH2 0x28E JUMPI PUSH1 0x20 PUSH32 0xFFFFFFFFFFFFFFFFFFFFFFFFFFFFFFFFFFFFFFFFFFFFFFFFFFFFFFFFFFFFFFFC CALLDATASIZE ADD SLT PUSH2 0x28E JUMPI PUSH2 0x667 SWAP1 CALLDATALOAD PUSH0 MSTORE PUSH0 PUSH1 0x20 MSTORE PUSH1 0x40 PUSH0 KECCAK256 SLOAD SWAP1 PUSH11 0xFFFFFFFFFFFFFFFFFFFFFF PUSH20 0xFFFFFFFFFFFFFFFFFFFFFFFFFFFFFFFFFFFFFFFF DUP4 AND SWAP3 PUSH1 0xA0 SHR AND SWAP1 JUMP JUMPDEST PUSH20 0xFFFFFFFFFFFFFFFFFFFFFFFFFFFFFFFFFFFFFFFF DUP4 MLOAD SWAP3 AND DUP3 MSTORE PUSH1 0x18 SHR PUSH1 0x20 DUP3 ADD MSTORE RETURN JUMPDEST DUP3 CALLVALUE PUSH2 0x28E JUMPI PUSH2 0x3D8 SWAP1 PUSH2 0x69F CALLDATASIZE PUSH2 0xF0F JUMP JUMPDEST SWAP2 SWAP3 MLOAD SWAP3 PUSH2 0x6AC DUP5 PUSH2 0xF6F JUMP JUMPDEST PUSH0 DUP5 MSTORE PUSH2 0x1094 JUMP JUMPDEST POP SWAP1 CALLVALUE PUSH2 0x28E JUMPI PUSH2 0x6C4 CALLDATASIZE PUSH2 0xF0F JUMP JUMPDEST SWAP2 SWAP3 PUSH2 0x727 DUP4 PUSH0 MSTORE PUSH0 PUSH1 0x20 MSTORE PUSH1 0x40 PUSH0 KECCAK256 SLOAD SWAP1 PUSH20 0xFFFFFFFFFFFFFFFFFFFFFFFFFFFFFFFFFFFFFFFF DUP3 AND SWAP2 PUSH11 0xFFFFFFFFFFFFFFFFFFFFFF PUSH32 0x8000000000000000000000000000000000000000000000000000000000000000 DUP1 DUP4 AND EQ SWAP2 PUSH1 0xA0 SHR AND SWAP2 JUMP JUMPDEST PUSH20 0xFFFFFFFFFFFFFFFFFFFFFFFFFFFFFFFFFFFFFFFF SWAP4 SWAP3 SWAP2 SWAP4 DUP1 DUP4 AND SWAP3 DUP4 ISZERO PUSH2 0x888 JUMPI DUP2 DUP10 AND SWAP4 DUP5 SUB PUSH2 0x834 JUMPI POP DUP1 DUP7 AND DUP1 ISZERO DUP1 ISZERO PUSH2 0x82B JUMPI JUMPDEST PUSH2 0x7FC JUMPI POP DUP3 CALLER SUB PUSH2 0x780 JUMPI JUMPDEST PUSH2 0x3D8 DUP9 DUP9 DUP9 DUP9 PUSH1 0x18 SHR ISZERO ISZERO SWAP3 PUSH2 0x147A JUMP JUMPDEST DUP2 PUSH2 0x7E4 JUMPI JUMPDEST POP ISZERO SWAP1 DUP2 PUSH2 0x7C4 JUMPI JUMPDEST POP PUSH2 0x79C JUMPI DUP1 DUP1 DUP1 PUSH2 0x76E JUMP JUMPDEST DUP6 SWAP1 MLOAD PUSH32 0xEA8E4EB500000000000000000000000000000000000000000000000000000000 DUP2 MSTORE REVERT JUMPDEST SWAP1 POP PUSH0 MSTORE PUSH1 0x2 PUSH1 0x20 MSTORE DUP1 PUSH0 KECCAK256 CALLER PUSH0 MSTORE PUSH1 0x20 MSTORE PUSH1 0xFF DUP2 PUSH0 KECCAK256 SLOAD AND ISZERO PUSH0 PUSH2 0x78F JUMP JUMPDEST SWAP1 POP DUP6 PUSH0 MSTORE PUSH1 0x3 PUSH1 0x20 MSTORE CALLER SWAP1 DUP4 PUSH0 KECCAK256 SLOAD AND EQ PUSH0 PUSH2 0x786 JUMP JUMPDEST DUP10 PUSH1 0x24 SWAP2 DUP7 MLOAD SWAP2 PUSH32 0x8E4C8AA600000000000000000000000000000000000000000000000000000000 DUP4 MSTORE DUP3 ADD MSTORE REVERT JUMPDEST POP ADDRESS DUP2 EQ PUSH2 0x761 JUMP JUMPDEST DUP5 MLOAD PUSH32 0x23295F0E00000000000000000000000000000000000000000000000000000000 DUP2 MSTORE PUSH20 0xFFFFFFFFFFFFFFFFFFFFFFFFFFFFFFFFFFFFFFFF DUP1 DUP12 AND DUP3 DUP14 ADD SWAP1 DUP2 MSTORE SWAP3 AND PUSH1 0x20 DUP4 ADD MSTORE SWAP1 DUP2 SWAP1 PUSH1 0x40 ADD SUB SWAP1 REVERT JUMPDEST PUSH1 0x24 DUP11 DUP10 DUP8 MLOAD SWAP2 PUSH32 0x38077A2B00000000000000000000000000000000000000000000000000000000 DUP4 MSTORE DUP3 ADD MSTORE REVERT JUMPDEST POP SWAP1 CALLVALUE PUSH2 0x28E JUMPI DUP1 PUSH32 0xFFFFFFFFFFFFFFFFFFFFFFFFFFFFFFFFFFFFFFFFFFFFFFFFFFFFFFFFFFFFFFFC CALLDATASIZE ADD SLT PUSH2 0x28E JUMPI PUSH2 0x8EF PUSH2 0xEC9 JUMP JUMPDEST PUSH1 0x24 CALLDATALOAD PUSH12 0xFFFFFFFFFFFFFFFFFFFFFFFF DUP2 AND DUP1 SWAP2 SUB PUSH2 0x28E JUMPI PUSH32 0xFFFFFFFFFFFFFFFFFFFFFFFFFFFFFFFFFFFFFFFF00000000000000000000000 DUP3 PUSH1 0x5C SHL AND OR SWAP1 DUP2 PUSH0 MSTORE PUSH1 0x20 PUSH0 DUP2 MSTORE PUSH20 0xFFFFFFFFFFFFFFFFFFFFFFFFFFFFFFFFFFFFFFFF DUP1 DUP6 PUSH0 KECCAK256 SLOAD AND PUSH2 0xB2A JUMPI DUP5 MLOAD SWAP1 PUSH2 0x963 DUP3 PUSH2 0xF6F JUMP JUMPDEST PUSH0 DUP3 MSTORE DUP4 AND SWAP3 DUP4 PUSH0 MSTORE PUSH1 0x1 DUP4 MSTORE DUP6 PUSH0 KECCAK256 PUSH1 0x1 DUP2 SLOAD ADD SWAP1 SSTORE DUP5 PUSH0 MSTORE PUSH0 DUP4 MSTORE DUP4 NUMBER PUSH1 0xB8 SHL OR DUP7 PUSH0 KECCAK256 SSTORE DUP5 DUP5 PUSH0 PUSH32 0xDDF252AD1BE2C89B69C2B068FC378DAA952BA7F163C4A11628F55A4DF523B3EF DUP2 DUP1 LOG4 EXTCODESIZE PUSH2 0x9B8 JUMPI STOP JUMPDEST DUP2 PUSH1 0x1F SWAP4 DUP2 SWAP3 PUSH0 PUSH1 0xA4 DUP11 SWAP9 PUSH32 0xFFFFFFFFFFFFFFFFFFFFFFFFFFFFFFFFFFFFFFFFFFFFFFFFFFFFFFFFFFFFFFE0 DUP12 MLOAD SWAP10 DUP11 SWAP8 DUP9 SWAP7 DUP8 SWAP5 PUSH32 0x150B7A0200000000000000000000000000000000000000000000000000000000 SWAP15 DUP16 DUP8 MSTORE CALLER SWAP1 DUP8 ADD MSTORE DUP8 PUSH1 0x24 DUP8 ADD MSTORE PUSH1 0x44 DUP7 ADD MSTORE PUSH1 0x80 PUSH1 0x64 DUP7 ADD MSTORE DUP1 MLOAD SWAP2 DUP3 SWAP2 DUP3 PUSH1 0x84 DUP9 ADD MSTORE ADD DUP7 DUP7 ADD MCOPY DUP6 DUP6 DUP3 DUP7 ADD ADD MSTORE ADD AND DUP2 ADD SUB ADD SWAP3 GAS CALL SWAP1 DUP2 ISZERO PUSH2 0xB20 JUMPI PUSH0 SWAP2 PUSH2 0xAA9 JUMPI JUMPDEST POP PUSH32 0xFFFFFFFF00000000000000000000000000000000000000000000000000000000 SWAP2 POP AND SUB PUSH2 0xA83 JUMPI STOP JUMPDEST MLOAD PUSH32 0x4E472E5E00000000000000000000000000000000000000000000000000000000 DUP2 MSTORE REVERT JUMPDEST SWAP1 POP DUP2 DUP2 RETURNDATASIZE DUP4 GT PUSH2 0xB19 JUMPI JUMPDEST PUSH2 0xABF DUP2 DUP4 PUSH2 0xFB8 JUMP JUMPDEST DUP2 ADD SUB SLT PUSH2 0x28E JUMPI MLOAD PUSH32 0xFFFFFFFF00000000000000000000000000000000000000000000000000000000 DUP2 AND DUP2 SUB PUSH2 0x28E JUMPI PUSH32 0xFFFFFFFF00000000000000000000000000000000000000000000000000000000 SWAP1 PUSH0 PUSH2 0xA57 JUMP JUMPDEST POP RETURNDATASIZE PUSH2 0xAB5 JUMP JUMPDEST DUP5 MLOAD RETURNDATASIZE PUSH0 DUP3 RETURNDATACOPY RETURNDATASIZE SWAP1 REVERT JUMPDEST PUSH1 0x24 DUP7 DUP6 DUP8 MLOAD SWAP2 PUSH32 0x6025413B00000000000000000000000000000000000000000000000000000000 DUP4 MSTORE DUP3 ADD MSTORE REVERT JUMPDEST POP CALLVALUE PUSH2 0x28E JUMPI DUP2 PUSH32 0xFFFFFFFFFFFFFFFFFFFFFFFFFFFFFFFFFFFFFFFFFFFFFFFFFFFFFFFFFFFFFFFC CALLDATASIZE ADD SLT PUSH2 0x28E JUMPI PUSH2 0xB90 PUSH2 0xEC9 JUMP JUMPDEST SWAP1 PUSH1 0x24 CALLDATALOAD SWAP3 PUSH2 0xBD0 DUP5 PUSH0 MSTORE PUSH0 PUSH1 0x20 MSTORE PUSH1 0x40 PUSH0 KECCAK256 SLOAD SWAP1 PUSH11 0xFFFFFFFFFFFFFFFFFFFFFF PUSH20 0xFFFFFFFFFFFFFFFFFFFFFFFFFFFFFFFFFFFFFFFF DUP4 AND SWAP3 PUSH1 0xA0 SHR AND SWAP1 JUMP JUMPDEST SWAP4 PUSH20 0xFFFFFFFFFFFFFFFFFFFFFFFFFFFFFFFFFFFFFFFF DUP1 SWAP3 AND SWAP4 DUP5 ISZERO PUSH2 0xD54 JUMPI DUP5 CALLER EQ ISZERO DUP1 PUSH2 0xD35 JUMPI JUMPDEST PUSH2 0xD0E JUMPI PUSH1 0x1 DUP7 ADD SWAP6 DUP7 DUP2 GT PUSH2 0xCE2 JUMPI PUSH1 0x18 SHR DUP7 PUSH1 0x18 SHR SUB PUSH2 0xCBB JUMPI POP AND SWAP3 DUP3 SWAP1 DUP5 PUSH2 0xC56 JUMPI DUP6 PUSH0 MSTORE PUSH0 PUSH1 0x20 MSTORE PUSH1 0xA0 SHL OR SWAP1 PUSH0 KECCAK256 SSTORE JUMPDEST PUSH32 0x8C5BE1E5EBEC7D5BD14F71427D1E84F3DD0314C0F7B2291E5B200AC8C7C3B925 PUSH0 DUP1 LOG4 STOP JUMPDEST DUP6 PUSH0 MSTORE PUSH0 PUSH1 0x20 MSTORE PUSH1 0xA0 SHL OR PUSH32 0x8000000000000000000000000000000000000000000000000000000000000000 OR DUP2 PUSH0 KECCAK256 SSTORE PUSH1 0x3 PUSH1 0x20 MSTORE PUSH0 KECCAK256 DUP3 PUSH32 0xFFFFFFFFFFFFFFFFFFFFFFFF0000000000000000000000000000000000000000 DUP3 SLOAD AND OR SWAP1 SSTORE PUSH2 0xC30 JUMP JUMPDEST DUP4 MLOAD PUSH32 0xADC1557200000000000000000000000000000000000000000000000000000000 DUP2 MSTORE REVERT JUMPDEST PUSH1 0x11 DUP3 PUSH32 0x4E487B7100000000000000000000000000000000000000000000000000000000 PUSH0 MSTORE MSTORE PUSH1 0x24 PUSH0 REVERT JUMPDEST DUP4 MLOAD PUSH32 0xEA8E4EB500000000000000000000000000000000000000000000000000000000 DUP2 MSTORE REVERT JUMPDEST POP DUP5 PUSH0 MSTORE PUSH1 0x2 PUSH1 0x20 MSTORE DUP4 PUSH0 KECCAK256 CALLER PUSH0 MSTORE PUSH1 0x20 MSTORE PUSH1 0xFF DUP5 PUSH0 KECCAK256 SLOAD AND ISZERO PUSH2 0xBFA JUMP JUMPDEST PUSH1 0x24 SWAP1 DUP8 DUP6 MLOAD SWAP2 PUSH32 0x38077A2B00000000000000000000000000000000000000000000000000000000 DUP4 MSTORE DUP3 ADD MSTORE REVERT JUMPDEST POP SWAP1 CALLVALUE PUSH2 0x28E JUMPI PUSH1 0x20 PUSH32 0xFFFFFFFFFFFFFFFFFFFFFFFFFFFFFFFFFFFFFFFFFFFFFFFFFFFFFFFFFFFFFFFC CALLDATASIZE ADD SLT PUSH2 0x28E JUMPI PUSH20 0xFFFFFFFFFFFFFFFFFFFFFFFFFFFFFFFFFFFFFFFF PUSH2 0xDD5 PUSH1 0x20 SWAP4 CALLDATALOAD PUSH2 0xFF9 JUMP JUMPDEST SWAP2 MLOAD SWAP2 AND DUP2 MSTORE RETURN JUMPDEST DUP3 CALLVALUE PUSH2 0x28E JUMPI PUSH1 0x20 PUSH32 0xFFFFFFFFFFFFFFFFFFFFFFFFFFFFFFFFFFFFFFFFFFFFFFFFFFFFFFFFFFFFFFFC CALLDATASIZE ADD SLT PUSH2 0x28E JUMPI CALLDATALOAD SWAP1 PUSH32 0xFFFFFFFF00000000000000000000000000000000000000000000000000000000 DUP3 AND DUP1 SWAP3 SUB PUSH2 0x28E JUMPI DUP2 PUSH32 0x1FFC9A700000000000000000000000000000000000000000000000000000000 PUSH1 0x20 SWAP4 EQ SWAP1 DUP2 ISZERO PUSH2 0xE9F JUMPI JUMPDEST DUP2 ISZERO PUSH2 0xE75 JUMPI JUMPDEST POP ISZERO ISZERO DUP2 MSTORE RETURN JUMPDEST PUSH32 0x5B5E139F00000000000000000000000000000000000000000000000000000000 SWAP2 POP EQ DUP4 PUSH2 0xE6E JUMP JUMPDEST PUSH32 0x80AC58CD00000000000000000000000000000000000000000000000000000000 DUP2 EQ SWAP2 POP PUSH2 0xE67 JUMP JUMPDEST PUSH1 0x4 CALLDATALOAD SWAP1 PUSH20 0xFFFFFFFFFFFFFFFFFFFFFFFFFFFFFFFFFFFFFFFF DUP3 AND DUP3 SUB PUSH2 0x28E JUMPI JUMP JUMPDEST PUSH1 0x24 CALLDATALOAD SWAP1 PUSH20 0xFFFFFFFFFFFFFFFFFFFFFFFFFFFFFFFFFFFFFFFF DUP3 AND DUP3 SUB PUSH2 0x28E JUMPI JUMP JUMPDEST PUSH32 0xFFFFFFFFFFFFFFFFFFFFFFFFFFFFFFFFFFFFFFFFFFFFFFFFFFFFFFFFFFFFFFFC PUSH1 0x60 SWAP2 ADD SLT PUSH2 0x28E JUMPI PUSH20 0xFFFFFFFFFFFFFFFFFFFFFFFFFFFFFFFFFFFFFFFF SWAP1 PUSH1 0x4 CALLDATALOAD DUP3 DUP2 AND DUP2 SUB PUSH2 0x28E JUMPI SWAP2 PUSH1 0x24 CALLDATALOAD SWAP1 DUP2 AND DUP2 SUB PUSH2 0x28E JUMPI SWAP1 PUSH1 0x44 CALLDATALOAD SWAP1 JUMP JUMPDEST PUSH1 0x20 DUP2 ADD SWAP1 DUP2 LT PUSH8 0xFFFFFFFFFFFFFFFF DUP3 GT OR PUSH2 0xF8B JUMPI PUSH1 0x40 MSTORE JUMP JUMPDEST PUSH32 0x4E487B7100000000000000000000000000000000000000000000000000000000 PUSH0 MSTORE PUSH1 0x41 PUSH1 0x4 MSTORE PUSH1 0x24 PUSH0 REVERT JUMPDEST SWAP1 PUSH1 0x1F PUSH32 0xFFFFFFFFFFFFFFFFFFFFFFFFFFFFFFFFFFFFFFFFFFFFFFFFFFFFFFFFFFFFFFE0 SWAP2 ADD AND DUP2 ADD SWAP1 DUP2 LT PUSH8 0xFFFFFFFFFFFFFFFF DUP3 GT OR PUSH2 0xF8B JUMPI PUSH1 0x40 MSTORE JUMP JUMPDEST DUP1 PUSH0 MSTORE PUSH0 PUSH1 0x20 MSTORE PUSH1 0x40 PUSH0 KECCAK256 SLOAD SWAP1 PUSH20 0xFFFFFFFFFFFFFFFFFFFFFFFFFFFFFFFFFFFFFFFF SWAP2 PUSH32 0x8000000000000000000000000000000000000000000000000000000000000000 SWAP1 DUP4 DUP2 AND ISZERO PUSH2 0x1063 JUMPI DUP2 AND SUB PUSH2 0x105D JUMPI PUSH0 MSTORE PUSH1 0x3 PUSH1 0x20 MSTORE PUSH1 0x40 PUSH0 KECCAK256 SLOAD AND SWAP1 JUMP JUMPDEST POP POP PUSH0 SWAP1 JUMP JUMPDEST PUSH1 0x24 DUP4 PUSH1 0x40 MLOAD SWAP1 PUSH32 0x38077A2B00000000000000000000000000000000000000000000000000000000 DUP3 MSTORE PUSH1 0x4 DUP3 ADD MSTORE REVERT JUMPDEST SWAP3 SWAP1 SWAP2 PUSH2 0x10F8 DUP2 PUSH0 MSTORE PUSH0 PUSH1 0x20 MSTORE PUSH1 0x40 PUSH0 KECCAK256 SLOAD SWAP1 PUSH20 0xFFFFFFFFFFFFFFFFFFFFFFFFFFFFFFFFFFFFFFFF DUP3 AND SWAP2 PUSH11 0xFFFFFFFFFFFFFFFFFFFFFF PUSH32 0x8000000000000000000000000000000000000000000000000000000000000000 DUP1 DUP4 AND EQ SWAP2 PUSH1 0xA0 SHR AND SWAP2 JUMP JUMPDEST SWAP5 SWAP2 SWAP6 PUSH20 0xFFFFFFFFFFFFFFFFFFFFFFFFFFFFFFFFFFFFFFFF SWAP6 DUP7 DUP9 AND SWAP8 DUP9 ISZERO PUSH2 0x13F0 JUMPI DUP8 DUP4 AND DUP1 SWAP10 SUB PUSH2 0x139F JUMPI POP DUP7 DUP5 AND SWAP7 DUP8 ISZERO DUP1 ISZERO PUSH2 0x1396 JUMPI JUMPDEST PUSH2 0x1365 JUMPI DUP6 SWAP2 DUP6 SWAP2 DUP11 CALLER SUB PUSH2 0x12E1 JUMPI JUMPDEST POP POP PUSH2 0x1154 SWAP4 PUSH1 0x18 SHR ISZERO ISZERO SWAP3 PUSH2 0x147A JUMP JUMPDEST EXTCODESIZE PUSH2 0x1160 JUMPI JUMPDEST POP POP POP POP JUMP JUMPDEST PUSH1 0x1F SWAP3 PUSH1 0x20 SWAP3 PUSH0 PUSH1 0xA4 DUP6 SWAP5 PUSH32 0xFFFFFFFFFFFFFFFFFFFFFFFFFFFFFFFFFFFFFFFFFFFFFFFFFFFFFFFFFFFFFFE0 PUSH1 0x40 MLOAD SWAP9 DUP10 SWAP8 DUP9 SWAP7 DUP8 SWAP5 PUSH32 0x150B7A0200000000000000000000000000000000000000000000000000000000 SWAP14 DUP15 DUP8 MSTORE CALLER PUSH1 0x4 DUP9 ADD MSTORE PUSH1 0x24 DUP8 ADD MSTORE PUSH1 0x44 DUP7 ADD MSTORE PUSH1 0x80 PUSH1 0x64 DUP7 ADD MSTORE DUP1 MLOAD SWAP2 DUP3 SWAP2 DUP3 PUSH1 0x84 DUP9 ADD MSTORE ADD DUP7 DUP7 ADD MCOPY DUP6 DUP6 DUP3 DUP7 ADD ADD MSTORE ADD AND DUP2 ADD SUB ADD SWAP3 GAS CALL DUP1 ISZERO PUSH2 0x12D6 JUMPI PUSH0 SWAP1 PUSH2 0x125B JUMPI JUMPDEST PUSH32 0xFFFFFFFF00000000000000000000000000000000000000000000000000000000 SWAP2 POP AND SUB PUSH2 0x1231 JUMPI PUSH0 DUP1 DUP1 DUP1 PUSH2 0x115A JUMP JUMPDEST PUSH1 0x4 PUSH1 0x40 MLOAD PUSH32 0x4E472E5E00000000000000000000000000000000000000000000000000000000 DUP2 MSTORE REVERT JUMPDEST POP PUSH1 0x20 DUP2 RETURNDATASIZE PUSH1 0x20 GT PUSH2 0x12CE JUMPI JUMPDEST DUP2 PUSH2 0x1275 PUSH1 0x20 SWAP4 DUP4 PUSH2 0xFB8 JUMP JUMPDEST DUP2 ADD SUB SLT PUSH2 0x28E JUMPI MLOAD PUSH32 0xFFFFFFFF00000000000000000000000000000000000000000000000000000000 DUP2 AND DUP2 SUB PUSH2 0x28E JUMPI PUSH32 0xFFFFFFFF00000000000000000000000000000000000000000000000000000000 SWAP1 PUSH2 0x11FF JUMP JUMPDEST RETURNDATASIZE SWAP2 POP PUSH2 0x1268 JUMP JUMPDEST PUSH1 0x40 MLOAD RETURNDATASIZE PUSH0 DUP3 RETURNDATACOPY RETURNDATASIZE SWAP1 REVERT JUMPDEST SWAP2 POP DUP1 SWAP3 POP SWAP2 PUSH2 0x134C JUMPI JUMPDEST POP ISZERO DUP1 PUSH2 0x132B JUMPI JUMPDEST PUSH2 0x1301 JUMPI DUP4 DUP4 PUSH0 DUP1 PUSH2 0x1143 JUMP JUMPDEST PUSH1 0x4 PUSH1 0x40 MLOAD PUSH32 0xEA8E4EB500000000000000000000000000000000000000000000000000000000 DUP2 MSTORE REVERT JUMPDEST POP DUP7 PUSH0 MSTORE PUSH1 0x2 PUSH1 0x20 MSTORE PUSH1 0x40 PUSH0 KECCAK256 CALLER PUSH0 MSTORE PUSH1 0x20 MSTORE PUSH1 0xFF PUSH1 0x40 PUSH0 KECCAK256 SLOAD AND ISZERO PUSH2 0x12F4 JUMP JUMPDEST SWAP1 POP DUP5 PUSH0 MSTORE PUSH1 0x3 PUSH1 0x20 MSTORE CALLER SWAP1 PUSH1 0x40 PUSH0 KECCAK256 SLOAD AND EQ PUSH0 PUSH2 0x12EC JUMP JUMPDEST PUSH1 0x24 DUP9 PUSH1 0x40 MLOAD SWAP1 PUSH32 0x8E4C8AA600000000000000000000000000000000000000000000000000000000 DUP3 MSTORE PUSH1 0x4 DUP3 ADD MSTORE REVERT JUMPDEST POP ADDRESS DUP9 EQ PUSH2 0x1133 JUMP JUMPDEST PUSH1 0x40 MLOAD PUSH32 0x23295F0E00000000000000000000000000000000000000000000000000000000 DUP2 MSTORE PUSH20 0xFFFFFFFFFFFFFFFFFFFFFFFFFFFFFFFFFFFFFFFF DUP5 DUP2 AND PUSH1 0x4 DUP4 ADD MSTORE SWAP2 SWAP1 SWAP2 AND PUSH1 0x24 DUP3 ADD MSTORE PUSH1 0x44 SWAP1 REVERT JUMPDEST PUSH1 0x24 DUP7 PUSH1 0x40 MLOAD SWAP1 PUSH32 0x38077A2B00000000000000000000000000000000000000000000000000000000 DUP3 MSTORE PUSH1 0x4 DUP3 ADD MSTORE REVERT JUMPDEST PUSH8 0xFFFFFFFFFFFFFFFF DUP2 GT PUSH2 0xF8B JUMPI PUSH1 0x5 SHL PUSH1 0x20 ADD SWAP1 JUMP JUMPDEST DUP1 MLOAD DUP3 LT ISZERO PUSH2 0x144D JUMPI PUSH1 0x20 SWAP2 PUSH1 0x5 SHL ADD ADD SWAP1 JUMP JUMPDEST PUSH32 0x4E487B7100000000000000000000000000000000000000000000000000000000 PUSH0 MSTORE PUSH1 0x32 PUSH1 0x4 MSTORE PUSH1 0x24 PUSH0 REVERT JUMPDEST SWAP3 SWAP2 SWAP3 PUSH20 0xFFFFFFFFFFFFFFFFFFFFFFFFFFFFFFFFFFFFFFFF DUP1 SWAP3 AND SWAP3 DUP4 PUSH0 MSTORE PUSH1 0x1 PUSH1 0x20 MSTORE PUSH1 0x40 PUSH0 KECCAK256 PUSH1 0x1 DUP2 SLOAD ADD SWAP1 SSTORE PUSH2 0x14E7 JUMPI JUMPDEST DUP4 PUSH0 MSTORE PUSH0 PUSH1 0x20 MSTORE DUP3 NUMBER PUSH1 0xB8 SHL OR PUSH1 0x40 PUSH0 KECCAK256 SSTORE AND PUSH32 0xDDF252AD1BE2C89B69C2B068FC378DAA952BA7F163C4A11628F55A4DF523B3EF PUSH0 DUP1 LOG4 JUMP JUMPDEST DUP2 DUP2 AND PUSH0 MSTORE PUSH1 0x40 PUSH0 KECCAK256 PUSH32 0xFFFFFFFFFFFFFFFFFFFFFFFFFFFFFFFFFFFFFFFFFFFFFFFFFFFFFFFFFFFFFFFF DUP2 SLOAD ADD SWAP1 SSTORE PUSH2 0x14AE JUMP INVALID LOG2 PUSH5 0x6970667358 0x22 SLT KECCAK256 PUSH24 0x2389803F34AC284C319A65A14D6FAB135C0A8B585173672 0xEF PUSH31 0x1500065CE964736F6C63430008190033000000000000000000000000000000 "
    },
    "gasEstimates": {
      "creation": {
        "codeDepositCost": "1091400",
        "executionCost": "1142",
        "totalCost": "1092542"
      },
      "external": {
        "approve(address,uint256)": "53228",
        "balanceOf(address)": "2596",
        "getApproved(uint256)": "4618",
        "isApprovedForAll(address,address)": "2785",
        "mint(address,uint96)": "infinite",
        "ownerAndLastTransferBlockNumberList(uint256[])": "infinite",
        "ownerAndLastTransferBlockNumberOf(uint256)": "2529",
        "ownerOf(uint256)": "2540",
        "safeTransferFrom(address,address,uint256)": "infinite",
        "safeTransferFrom(address,address,uint256,bytes)": "infinite",
        "setApprovalForAll(address,bool)": "26589",
        "supportsInterface(bytes4)": "307",
        "transferFrom(address,address,uint256)": "79984"
      }
    },
    "methodIdentifiers": {
      "approve(address,uint256)": "095ea7b3",
      "balanceOf(address)": "70a08231",
      "getApproved(uint256)": "081812fc",
      "isApprovedForAll(address,address)": "e985e9c5",
      "mint(address,uint96)": "1b025a40",
      "ownerAndLastTransferBlockNumberList(uint256[])": "f3945282",
      "ownerAndLastTransferBlockNumberOf(uint256)": "48f3c51c",
      "ownerOf(uint256)": "6352211e",
      "safeTransferFrom(address,address,uint256)": "42842e0e",
      "safeTransferFrom(address,address,uint256,bytes)": "b88d4fde",
      "setApprovalForAll(address,bool)": "a22cb465",
      "supportsInterface(bytes4)": "01ffc9a7",
      "transferFrom(address,address,uint256)": "23b872dd"
    }
  },
  "storageLayout": {
    "storage": [
      {
        "astId": 17221,
        "contract": "src/characters/Characters.sol:Characters",
        "label": "_owners",
        "offset": 0,
        "slot": "0",
        "type": "t_mapping(t_uint256,t_uint256)"
      },
      {
        "astId": 17225,
        "contract": "src/characters/Characters.sol:Characters",
        "label": "_balances",
        "offset": 0,
        "slot": "1",
        "type": "t_mapping(t_address,t_uint256)"
      },
      {
        "astId": 17231,
        "contract": "src/characters/Characters.sol:Characters",
        "label": "_operatorsForAll",
        "offset": 0,
        "slot": "2",
        "type": "t_mapping(t_address,t_mapping(t_address,t_bool))"
      },
      {
        "astId": 17235,
        "contract": "src/characters/Characters.sol:Characters",
        "label": "_operators",
        "offset": 0,
        "slot": "3",
        "type": "t_mapping(t_uint256,t_address)"
      }
    ],
    "types": {
      "t_address": {
        "encoding": "inplace",
        "label": "address",
        "numberOfBytes": "20"
      },
      "t_bool": {
        "encoding": "inplace",
        "label": "bool",
        "numberOfBytes": "1"
      },
      "t_mapping(t_address,t_bool)": {
        "encoding": "mapping",
        "key": "t_address",
        "label": "mapping(address => bool)",
        "numberOfBytes": "32",
        "value": "t_bool"
      },
      "t_mapping(t_address,t_mapping(t_address,t_bool))": {
        "encoding": "mapping",
        "key": "t_address",
        "label": "mapping(address => mapping(address => bool))",
        "numberOfBytes": "32",
        "value": "t_mapping(t_address,t_bool)"
      },
      "t_mapping(t_address,t_uint256)": {
        "encoding": "mapping",
        "key": "t_address",
        "label": "mapping(address => uint256)",
        "numberOfBytes": "32",
        "value": "t_uint256"
      },
      "t_mapping(t_uint256,t_address)": {
        "encoding": "mapping",
        "key": "t_uint256",
        "label": "mapping(uint256 => address)",
        "numberOfBytes": "32",
        "value": "t_address"
      },
      "t_mapping(t_uint256,t_uint256)": {
        "encoding": "mapping",
        "key": "t_uint256",
        "label": "mapping(uint256 => uint256)",
        "numberOfBytes": "32",
        "value": "t_uint256"
      },
      "t_uint256": {
        "encoding": "inplace",
        "label": "uint256",
        "numberOfBytes": "32"
      }
    }
  },
  "userdoc": {
    "errors": {
      "InvalidAddress(address)": [
        {
          "notice": "An invalid address is specified (for example: zero address)"
        }
      ],
      "NonExistentToken(uint256)": [
        {
          "notice": "The token does not exist"
        }
      ],
      "NonceOverflow()": [
        {
          "notice": "The Nonce overflowed, make a transfer to self to allow new nonces."
        }
      ],
      "NotAuthorized()": [
        {
          "notice": "Not authorized to perform this operation"
        }
      ],
      "NotOwner(address,address)": [
        {
          "notice": "The address from which the token is sent is not the current owner"
        }
      ],
      "TokenAlreadyExists(uint256)": [
        {
          "notice": "The token already exists"
        }
      ],
      "TransferRejected()": [
        {
          "notice": "The Transfer was rejected by the destination"
        }
      ]
    },
    "events": {
      "Approval(address,address,uint256)": {
        "notice": "Triggered when a token is approved to be sent by another account  Note tat the approval get reset when a Transfer event for that same token is emitted."
      },
      "ApprovalForAll(address,address,bool)": {
        "notice": "Triggered when an account approve or disaprove another to transfer on its behalf"
      },
      "Transfer(address,address,uint256)": {
        "notice": "Triggered when a token is transferred"
      }
    },
    "kind": "user",
    "methods": {
      "approve(address,uint256)": {
        "notice": "Approve an operator to transfer a specific token on the senders behalf."
      },
      "balanceOf(address)": {
        "notice": "Get the number of tokens owned by an address."
      },
      "getApproved(uint256)": {
        "notice": "Get the approved operator for a specific token."
      },
      "isApprovedForAll(address,address)": {
        "notice": "Check if the sender approved the operator to transfer any of its tokens."
      },
      "ownerAndLastTransferBlockNumberList(uint256[])": {
        "notice": "Get the list of owner of a token and the blockNumber of its last transfer, useful to voting mechanism."
      },
      "ownerAndLastTransferBlockNumberOf(uint256)": {
        "notice": "Get the owner of a token and the blockNumber of the last transfer, useful to voting mechanism."
      },
      "ownerOf(uint256)": {
        "notice": "Get the owner of a token."
      },
      "safeTransferFrom(address,address,uint256)": {
        "notice": "Transfer a token between 2 addresses letting the receiver know of the transfer."
      },
      "safeTransferFrom(address,address,uint256,bytes)": {
        "notice": "Transfer a token between 2 addresses letting the receiver knows of the transfer."
      },
      "setApprovalForAll(address,bool)": {
        "notice": "Set the approval for an operator to manage all the tokens of the sender."
      },
      "supportsInterface(bytes4)": {
        "notice": "Query if a contract implements an interface"
      },
      "transferFrom(address,address,uint256)": {
        "notice": "Transfer a token between 2 addresses."
      }
    },
    "version": 1
  },
  "argsData": "0x0000000000000000000000000256e569f883559e71febf0684d99f648fa7d00f00000000000000000000000061c461ecc993aadeb7e4b47e96d1b8cc37314b2000000000000000000000000000000000000000000000000000000000000000600000000000000000000000000000000000000000000000000000000000000000",
  "transaction": {
    "hash": "0xd0f5fa8d5b3f5107ec8f2bc679863ca474201e1b395a24abe3ef381b62224833",
    "nonce": "0x1ca",
    "origin": "0x61c461ecc993aadeb7e4b47e96d1b8cc37314b20"
  },
  "updated": true,
  "_format": "hh-sol-artifact-1"
}