{
  "address": "0xdc20d5dad8e15ec3bec3b11d87c846ea7751ddd9",
  "abi": [
    {
      "inputs": [],
      "name": "GameNotStarted",
      "type": "error"
    },
    {
      "inputs": [
        {
          "internalType": "enum Game.Reason",
          "name": "reason",
          "type": "uint8"
        }
      ],
      "name": "InvalidMove",
      "type": "error"
    },
    {
      "inputs": [
        {
          "internalType": "address",
          "name": "sender",
          "type": "address"
        }
      ],
      "name": "NotAuthorizedController",
      "type": "error"
    },
    {
      "inputs": [],
      "name": "OnlyCharactersAreAccepted",
      "type": "error"
    },
    {
      "inputs": [
        {
          "internalType": "uint64",
          "name": "position",
          "type": "uint64"
        }
      ],
      "name": "UnableToExitFromThisPosition",
      "type": "error"
    },
    {
      "anonymous": false,
      "inputs": [
        {
          "indexed": true,
          "internalType": "uint256",
          "name": "characterID",
          "type": "uint256"
        },
        {
          "indexed": true,
          "internalType": "address",
          "name": "controller",
          "type": "address"
        },
        {
          "indexed": true,
          "internalType": "uint24",
          "name": "epoch",
          "type": "uint24"
        },
        {
          "indexed": false,
          "internalType": "bytes24",
          "name": "commitmentHash",
          "type": "bytes24"
        }
      ],
      "name": "CommitmentMade",
      "type": "event"
    },
    {
      "anonymous": false,
      "inputs": [
        {
          "indexed": true,
          "internalType": "uint256",
          "name": "characterID",
          "type": "uint256"
        },
        {
          "indexed": true,
          "internalType": "address",
          "name": "controller",
          "type": "address"
        },
        {
          "indexed": false,
          "internalType": "uint64",
          "name": "newPosition",
          "type": "uint64"
        }
      ],
      "name": "EnteredTheGame",
      "type": "event"
    },
    {
      "anonymous": false,
      "inputs": [
        {
          "indexed": true,
          "internalType": "uint256",
          "name": "characterID",
          "type": "uint256"
        },
        {
          "indexed": true,
          "internalType": "address",
          "name": "controller",
          "type": "address"
        },
        {
          "indexed": false,
          "internalType": "uint64",
          "name": "positionWhenLeaving",
          "type": "uint64"
        }
      ],
      "name": "LeftTheGame",
      "type": "event"
    },
    {
      "anonymous": false,
      "inputs": [
        {
          "indexed": true,
          "internalType": "uint256",
          "name": "characterID",
          "type": "uint256"
        },
        {
          "indexed": true,
          "internalType": "address",
          "name": "controller",
          "type": "address"
        },
        {
          "indexed": true,
          "internalType": "uint24",
          "name": "epoch",
          "type": "uint24"
        },
        {
          "components": [
            {
              "internalType": "uint64",
              "name": "position",
              "type": "uint64"
            },
            {
              "internalType": "uint192",
              "name": "action",
              "type": "uint192"
            }
          ],
          "indexed": false,
          "internalType": "struct Game.Action[]",
          "name": "actions",
          "type": "tuple[]"
        },
        {
          "indexed": false,
          "internalType": "uint64",
          "name": "newPosition",
          "type": "uint64"
        }
      ],
      "name": "MoveRevealed",
      "type": "event"
    },
    {
      "inputs": [
        {
          "components": [
            {
              "internalType": "uint256",
              "name": "characterID",
              "type": "uint256"
            },
            {
              "internalType": "address",
              "name": "sender",
              "type": "address"
            }
          ],
          "internalType": "struct GameEnter.Context",
          "name": "context",
          "type": "tuple"
        }
      ],
      "name": "computeStateChanges",
      "outputs": [
        {
          "components": [
            {
              "internalType": "uint256",
              "name": "characterID",
              "type": "uint256"
            },
            {
              "internalType": "uint64",
              "name": "position",
              "type": "uint64"
            },
            {
              "internalType": "address",
              "name": "controller",
              "type": "address"
            }
          ],
          "internalType": "struct GameEnter.StateChanges",
          "name": "stateChanges",
          "type": "tuple"
        }
      ],
      "stateMutability": "pure",
      "type": "function"
    },
    {
      "inputs": [
        {
          "internalType": "uint256",
          "name": "characterID",
          "type": "uint256"
        },
        {
          "internalType": "address payable",
          "name": "payee",
          "type": "address"
        }
      ],
      "name": "enter",
      "outputs": [],
      "stateMutability": "payable",
      "type": "function"
    },
    {
      "inputs": [
        {
          "internalType": "address",
          "name": "operator",
          "type": "address"
        },
        {
          "internalType": "address",
          "name": "from",
          "type": "address"
        },
        {
          "internalType": "uint256",
          "name": "tokenID",
          "type": "uint256"
        },
        {
          "internalType": "bytes",
          "name": "",
          "type": "bytes"
        }
      ],
      "name": "onERC721Received",
      "outputs": [
        {
          "internalType": "bytes4",
          "name": "",
          "type": "bytes4"
        }
      ],
      "stateMutability": "nonpayable",
      "type": "function"
    }
  ],
  "contractName": "GameEnter",
  "sourceName": "src/game/routes/GameEnter.sol",
  "bytecode": "0x608080604052346015576107fc908161001a8239f35b5f80fdfe60406080815260049081361015610014575f80fd5b5f915f3560e01c8063150b7a021461022f57806392da24a71461019d5763ea3b9ba11461003f575f80fd5b817ffffffffffffffffffffffffffffffffffffffffffffffffffffffffffffffffc3601126101995780356024359173ffffffffffffffffffffffffffffffffffffffff808416809403610199576060610097610533565b6100a1853361062a565b01511691823b15610199575f9260648492875195869384927f23b872dd000000000000000000000000000000000000000000000000000000008452338885015230602485015260448401525af1801561018f57610144575b505080839115158061013b575b61010e575080f35b8180809281903415610131575b3491f115610127578180f35b51903d90823e3d90fd5b6108fc915061011b565b50341515610106565b9091935067ffffffffffffffff8211610163575081525f915f806100f9565b6041907f4e487b71000000000000000000000000000000000000000000000000000000005f525260245ffd5b84513d5f823e3d90fd5b5f80fd5b50903461019957807ffffffffffffffffffffffffffffffffffffffffffffffffffffffffffffffffc360112610199576101f46060928251906101df8261041e565b3581526101ea6103fb565b60208201526104e0565b9073ffffffffffffffffffffffffffffffffffffffff818051938051855267ffffffffffffffff602082015116602086015201511690820152f35b5090346101995760807ffffffffffffffffffffffffffffffffffffffffffffffffffffffffffffffffc3601126101995781359173ffffffffffffffffffffffffffffffffffffffff8084168403610199576102896103fb565b9160643567ffffffffffffffff808211610199573660238301121561019957818301359081116101995736910160240111610199578160606102c9610533565b5f8088516102d68161041e565b601081527f6f6e4552433732315265636569766564000000000000000000000000000000006020820152895161036e8161034260208201947f41304fac0000000000000000000000000000000000000000000000000000000086526020602484015260448301906105e7565b037fffffffffffffffffffffffffffffffffffffffffffffffffffffffffffffffe0810183528261049f565b51906a636f6e736f6c652e6c6f675afa5001511633145f146103d45750926103a7916020948116155f146103cd57505b6044359061062a565b517f150b7a02000000000000000000000000000000000000000000000000000000008152f35b905061039e565b83517fd5cf25cf000000000000000000000000000000000000000000000000000000008152fd5b6024359073ffffffffffffffffffffffffffffffffffffffff8216820361019957565b6040810190811067ffffffffffffffff82111761043a57604052565b7f4e487b71000000000000000000000000000000000000000000000000000000005f52604160045260245ffd5b6060810190811067ffffffffffffffff82111761043a57604052565b6080810190811067ffffffffffffffff82111761043a57604052565b90601f7fffffffffffffffffffffffffffffffffffffffffffffffffffffffffffffffe0910116810190811067ffffffffffffffff82111761043a57604052565b5f604080516104ee81610467565b828152826020820152015273ffffffffffffffffffffffffffffffffffffffff60208251920151166040519161052383610467565b82525f6020830152604082015290565b5f606060405161054281610483565b82815282602082015282604082015201527ffffffffffffffffffffffffffffffffffffffffffffffffffffffffffffffffe8036013560f01c360390810190368211610199576080600282803603810103011261019957605e90604051926105a984610483565b358352601e8101356020840152603e8101356040840152013573ffffffffffffffffffffffffffffffffffffffff8116810361019957606082015290565b907fffffffffffffffffffffffffffffffffffffffffffffffffffffffffffffffe0601f602080948051918291828752018686015e5f8582860101520116010190565b7fe5809be68b478ab8561a52d47836faea84059d615cd9b760b57fdce5cf9c3ec060409283519361065a8561041e565b60209173ffffffffffffffffffffffffffffffffffffffff809516838701528552610684856104e0565b80515f5260018352815f209482820195818751165f5284528382019667ffffffffffffffff928389511690515f52600186526001855f2001907fffffffffffffffffffffffffffffffffffffffffffffffff00000000000000008254161790555f808961076a6107a6898c898989519251169551168b51956107058761041e565b600e87527f456e746572656454686547616d65000000000000000000000000000000000000848801528c519586948501977f4f04fdc60000000000000000000000000000000000000000000000000000000089526080602487015260a48601906105e7565b92604485015260648401526084830152037fffffffffffffffffffffffffffffffffffffffffffffffffffffffffffffffe0810183528261049f565b51906a636f6e736f6c652e6c6f675afa50519551169551169051908152a356fea2646970667358221220890c38efb47c054c9c7c63813f5d71f28e44f1a6d5853ba1565a1afb89d63ab864736f6c63430008190033",
  "linkReferences": {},
  "deployedLinkReferences": {},
  "devdoc": {
    "events": {
      "CommitmentMade(uint256,address,uint24,bytes24)": {
        "params": {
          "characterID": "the id of the NFT being played",
          "commitmentHash": "the hash of moves",
          "controller": "account handling the character moves",
          "epoch": "epoch number on which this commit belongs to"
        }
      },
      "EnteredTheGame(uint256,address,uint64)": {
        "params": {
          "characterID": "the id of the NFT being played",
          "controller": "account handling the character moves",
          "newPosition": "the resulting new character's position"
        }
      },
      "LeftTheGame(uint256,address,uint64)": {
        "params": {
          "characterID": "the id of the NFT being played",
          "controller": "account handling the character moves",
          "positionWhenLeaving": "the character's position when leaving"
        }
      },
      "MoveRevealed(uint256,address,uint24,(uint64,uint192)[],uint64)": {
        "params": {
          "actions": "the list of moves made",
          "characterID": "the id of the NFT being played",
          "controller": "account handling the character moves",
          "epoch": "epoch number on which this commit belongs to",
          "newPosition": "the resulting new character's position"
        }
      }
    },
    "kind": "dev",
    "methods": {},
    "version": 1
  },
  "evm": {
    "gasEstimates": {
      "creation": {
        "codeDepositCost": "408800",
        "executionCost": "450",
        "totalCost": "409250"
      },
      "external": {
        "computeStateChanges((uint256,address))": "infinite",
        "enter(uint256,address)": "infinite",
        "onERC721Received(address,address,uint256,bytes)": "infinite"
      },
      "internal": {
        "_apply(struct Game.Store storage pointer,struct GameEnter.StateChanges memory)": "infinite",
        "_context(address,uint256)": "infinite",
        "_enter(address,uint256)": "infinite"
      }
    }
  },
  "storageLayout": {
    "storage": [],
    "types": null
  },
  "userdoc": {
    "errors": {
      "GameNotStarted()": [
        {
          "notice": "happen when attempting to do something on a game that did not start yet"
        }
      ],
      "NotAuthorizedController(address)": [
        {
          "notice": "happen when an unauthorized account attempt to control a character"
        }
      ],
      "UnableToExitFromThisPosition(uint64)": [
        {
          "notice": "happen when attempting to leave the game from a non-exit position"
        }
      ]
    },
    "events": {
      "CommitmentMade(uint256,address,uint24,bytes24)": {
        "notice": "A character has commited to make a move and reveal it on the reveal phase"
      },
      "EnteredTheGame(uint256,address,uint64)": {
        "notice": "A character has commited to make a move and reveal it on the reveal phase"
      },
      "LeftTheGame(uint256,address,uint64)": {
        "notice": "A character has commited to make a move and reveal it on the reveal phase"
      },
      "MoveRevealed(uint256,address,uint24,(uint64,uint192)[],uint64)": {
        "notice": "A character has its moves revealed and executed"
      }
    },
    "kind": "user",
    "methods": {},
    "version": 1
  },
  "argsData": "0x",
  "transaction": {
    "hash": "0x58ddae726d32c965b882125d48ee9326b37617eb293e00f17e9973d406e4550d",
    "nonce": "0x1cb",
    "origin": "0x61c461ecc993aadeb7e4b47e96d1b8cc37314b20"
  }
}