{
  "address": "0x38fda1b0b35bb99e4ac11d8d604cd03e65feb423",
  "abi": [
    {
      "inputs": [],
      "name": "GameNotStarted",
      "type": "error"
    },
    {
      "inputs": [
        {
          "internalType": "enum Game.Reason",
          "name": "reason",
          "type": "uint8"
        }
      ],
      "name": "InvalidMove",
      "type": "error"
    },
    {
      "inputs": [
        {
          "internalType": "address",
          "name": "sender",
          "type": "address"
        }
      ],
      "name": "NotAuthorizedController",
      "type": "error"
    },
    {
      "inputs": [],
      "name": "OnlyCharactersAreAccepted",
      "type": "error"
    },
    {
      "inputs": [
        {
          "internalType": "uint64",
          "name": "position",
          "type": "uint64"
        }
      ],
      "name": "UnableToExitFromThisPosition",
      "type": "error"
    },
    {
      "anonymous": false,
      "inputs": [
        {
          "indexed": true,
          "internalType": "uint256",
          "name": "characterID",
          "type": "uint256"
        },
        {
          "indexed": true,
          "internalType": "address",
          "name": "controller",
          "type": "address"
        },
        {
          "indexed": true,
          "internalType": "uint24",
          "name": "epoch",
          "type": "uint24"
        },
        {
          "indexed": false,
          "internalType": "bytes24",
          "name": "commitmentHash",
          "type": "bytes24"
        }
      ],
      "name": "CommitmentMade",
      "type": "event"
    },
    {
      "anonymous": false,
      "inputs": [
        {
          "indexed": true,
          "internalType": "uint256",
          "name": "characterID",
          "type": "uint256"
        },
        {
          "indexed": true,
          "internalType": "address",
          "name": "controller",
          "type": "address"
        },
        {
          "indexed": false,
          "internalType": "uint64",
          "name": "newPosition",
          "type": "uint64"
        }
      ],
      "name": "EnteredTheGame",
      "type": "event"
    },
    {
      "anonymous": false,
      "inputs": [
        {
          "indexed": true,
          "internalType": "uint256",
          "name": "characterID",
          "type": "uint256"
        },
        {
          "indexed": true,
          "internalType": "address",
          "name": "controller",
          "type": "address"
        },
        {
          "indexed": false,
          "internalType": "uint64",
          "name": "positionWhenLeaving",
          "type": "uint64"
        }
      ],
      "name": "LeftTheGame",
      "type": "event"
    },
    {
      "anonymous": false,
      "inputs": [
        {
          "indexed": true,
          "internalType": "uint256",
          "name": "characterID",
          "type": "uint256"
        },
        {
          "indexed": true,
          "internalType": "address",
          "name": "controller",
          "type": "address"
        },
        {
          "indexed": true,
          "internalType": "uint24",
          "name": "epoch",
          "type": "uint24"
        },
        {
          "components": [
            {
              "internalType": "uint64",
              "name": "position",
              "type": "uint64"
            },
            {
              "internalType": "uint192",
              "name": "action",
              "type": "uint192"
            }
          ],
          "indexed": false,
          "internalType": "struct Game.Action[]",
          "name": "actions",
          "type": "tuple[]"
        },
        {
          "indexed": false,
          "internalType": "uint64",
          "name": "newPosition",
          "type": "uint64"
        }
      ],
      "name": "MoveRevealed",
      "type": "event"
    },
    {
      "inputs": [
        {
          "internalType": "uint256",
          "name": "characterID",
          "type": "uint256"
        },
        {
          "internalType": "address",
          "name": "to",
          "type": "address"
        }
      ],
      "name": "leave",
      "outputs": [],
      "stateMutability": "nonpayable",
      "type": "function"
    }
  ],
  "contractName": "GameLeave",
  "sourceName": "src/game/routes/GameLeave.sol",
  "bytecode": "0x6080806040523460155761038f908161001a8239f35b5f80fdfe6080604081815260049081361015610015575f80fd5b5f925f3560e01c63f29953b71461002a575f80fd5b3461025a57817ffffffffffffffffffffffffffffffffffffffffffffffffffffffffffffffffc36011261025a57823592602491823573ffffffffffffffffffffffffffffffffffffffff80821680920361025a5761008883610310565b5f83525f60606020948286820152828982015201527ffffffffffffffffffffffffffffffffffffffffffffffffffffffffffffffffe8036013560f01c36039081019036821161025a576080600282803603810103011261025a57605e908851926100f284610310565b358352601e81013586840152603e81013589840152013590828216820361025a57606001908152865193606085019467ffffffffffffffff95818110878211176102e55789525f8152818101915f8352898201915f83528b5f52600182528a5f20335f52825260ff8b5f20541660038110156102ba571561028c573383528b81528b5f52600182528760018c5f200154168085528061025e57509087867f2bc8caf27920c0130922d6534dcaabc4ab3dc9579ce9f22ae86be323bfcbbee993519451169451168b51908152a3511695863b1561025a5760645f92838851998a9485937f42842e0e000000000000000000000000000000000000000000000000000000008552308a8601528a85015260448401525af1801561025057610215578580f35b909192938095501161022657505052005b6041907f4e487b71000000000000000000000000000000000000000000000000000000005f52525ffd5b84513d5f823e3d90fd5b5f80fd5b898b918d51917fe1389181000000000000000000000000000000000000000000000000000000008352820152fd5b8a517fee027da400000000000000000000000000000000000000000000000000000000815233818b01528a90fd5b8a60218b7f4e487b71000000000000000000000000000000000000000000000000000000005f52525ffd5b886041897f4e487b71000000000000000000000000000000000000000000000000000000005f52525ffd5b6080810190811067ffffffffffffffff82111761032c57604052565b7f4e487b71000000000000000000000000000000000000000000000000000000005f52604160045260245ffdfea2646970667358221220cd9721d98041d1a1cf703c6242251155c49de45a32447c281c411b9aebf87db464736f6c63430008190033",
  "linkReferences": {},
  "deployedLinkReferences": {},
  "devdoc": {
    "events": {
      "CommitmentMade(uint256,address,uint24,bytes24)": {
        "params": {
          "characterID": "the id of the NFT being played",
          "commitmentHash": "the hash of moves",
          "controller": "account handling the character moves",
          "epoch": "epoch number on which this commit belongs to"
        }
      },
      "EnteredTheGame(uint256,address,uint64)": {
        "params": {
          "characterID": "the id of the NFT being played",
          "controller": "account handling the character moves",
          "newPosition": "the resulting new character's position"
        }
      },
      "LeftTheGame(uint256,address,uint64)": {
        "params": {
          "characterID": "the id of the NFT being played",
          "controller": "account handling the character moves",
          "positionWhenLeaving": "the character's position when leaving"
        }
      },
      "MoveRevealed(uint256,address,uint24,(uint64,uint192)[],uint64)": {
        "params": {
          "actions": "the list of moves made",
          "characterID": "the id of the NFT being played",
          "controller": "account handling the character moves",
          "epoch": "epoch number on which this commit belongs to",
          "newPosition": "the resulting new character's position"
        }
      }
    },
    "kind": "dev",
    "methods": {},
    "version": 1
  },
  "evm": {
    "gasEstimates": {
      "creation": {
        "codeDepositCost": "182200",
        "executionCost": "233",
        "totalCost": "182433"
      },
      "external": {
        "leave(uint256,address)": "infinite"
      },
      "internal": {
        "_context(struct Game.Store storage pointer,uint256)": "infinite"
      }
    }
  },
  "storageLayout": {
    "storage": [],
    "types": null
  },
  "userdoc": {
    "errors": {
      "GameNotStarted()": [
        {
          "notice": "happen when attempting to do something on a game that did not start yet"
        }
      ],
      "NotAuthorizedController(address)": [
        {
          "notice": "happen when an unauthorized account attempt to control a character"
        }
      ],
      "UnableToExitFromThisPosition(uint64)": [
        {
          "notice": "happen when attempting to leave the game from a non-exit position"
        }
      ]
    },
    "events": {
      "CommitmentMade(uint256,address,uint24,bytes24)": {
        "notice": "A character has commited to make a move and reveal it on the reveal phase"
      },
      "EnteredTheGame(uint256,address,uint64)": {
        "notice": "A character has commited to make a move and reveal it on the reveal phase"
      },
      "LeftTheGame(uint256,address,uint64)": {
        "notice": "A character has commited to make a move and reveal it on the reveal phase"
      },
      "MoveRevealed(uint256,address,uint24,(uint64,uint192)[],uint64)": {
        "notice": "A character has its moves revealed and executed"
      }
    },
    "kind": "user",
    "methods": {},
    "version": 1
  },
  "argsData": "0x",
  "transaction": {
    "hash": "0x1873532208eb1351021a3619307a2da8aec26ee9ade389f378c75b9da6d94acb",
    "nonce": "0x1cc",
    "origin": "0x61c461ecc993aadeb7e4b47e96d1b8cc37314b20"
  }
}