{
  "address": "0x828a6ac6b4c01e87219bcb442165b429a6794d7a",
  "abi": [
    {
      "inputs": [
        {
          "components": [
            {
              "internalType": "contract GameEnter",
              "name": "enterRoute",
              "type": "address"
            },
            {
              "internalType": "contract GameLeave",
              "name": "leaveRoute",
              "type": "address"
            },
            {
              "internalType": "contract GameCommit",
              "name": "commitRoute",
              "type": "address"
            },
            {
              "internalType": "contract GameReveal",
              "name": "revealRoute",
              "type": "address"
            }
          ],
          "internalType": "struct GameRouter.Routes",
          "name": "routes",
          "type": "tuple"
        },
        {
          "components": [
            {
              "internalType": "uint256",
              "name": "startTime",
              "type": "uint256"
            },
            {
              "internalType": "uint256",
              "name": "commitPhaseDuration",
              "type": "uint256"
            },
            {
              "internalType": "uint256",
              "name": "revealPhaseDuration",
              "type": "uint256"
            },
            {
              "internalType": "contract IERC721",
              "name": "characters",
              "type": "address"
            }
          ],
          "internalType": "struct Game.Config",
          "name": "config",
          "type": "tuple"
        }
      ],
      "stateMutability": "nonpayable",
      "type": "constructor"
    },
    {
      "inputs": [],
      "name": "GameNotStarted",
      "type": "error"
    },
    {
      "inputs": [
        {
          "internalType": "enum Game.Reason",
          "name": "reason",
          "type": "uint8"
        }
      ],
      "name": "InvalidMove",
      "type": "error"
    },
    {
      "inputs": [
        {
          "internalType": "address",
          "name": "sender",
          "type": "address"
        }
      ],
      "name": "NotAuthorizedController",
      "type": "error"
    },
    {
      "inputs": [],
      "name": "OnlyCharactersAreAccepted",
      "type": "error"
    },
    {
      "inputs": [
        {
          "internalType": "uint64",
          "name": "position",
          "type": "uint64"
        }
      ],
      "name": "UnableToExitFromThisPosition",
      "type": "error"
    },
    {
      "anonymous": false,
      "inputs": [
        {
          "indexed": true,
          "internalType": "uint256",
          "name": "characterID",
          "type": "uint256"
        },
        {
          "indexed": true,
          "internalType": "address",
          "name": "controller",
          "type": "address"
        },
        {
          "indexed": true,
          "internalType": "uint24",
          "name": "epoch",
          "type": "uint24"
        },
        {
          "indexed": false,
          "internalType": "bytes24",
          "name": "commitmentHash",
          "type": "bytes24"
        }
      ],
      "name": "CommitmentMade",
      "type": "event"
    },
    {
      "anonymous": false,
      "inputs": [
        {
          "indexed": true,
          "internalType": "uint256",
          "name": "characterID",
          "type": "uint256"
        },
        {
          "indexed": true,
          "internalType": "address",
          "name": "controller",
          "type": "address"
        },
        {
          "indexed": false,
          "internalType": "uint64",
          "name": "newPosition",
          "type": "uint64"
        }
      ],
      "name": "EnteredTheGame",
      "type": "event"
    },
    {
      "anonymous": false,
      "inputs": [
        {
          "indexed": true,
          "internalType": "uint256",
          "name": "characterID",
          "type": "uint256"
        },
        {
          "indexed": true,
          "internalType": "address",
          "name": "controller",
          "type": "address"
        },
        {
          "indexed": false,
          "internalType": "uint64",
          "name": "positionWhenLeaving",
          "type": "uint64"
        }
      ],
      "name": "LeftTheGame",
      "type": "event"
    },
    {
      "anonymous": false,
      "inputs": [
        {
          "indexed": true,
          "internalType": "uint256",
          "name": "characterID",
          "type": "uint256"
        },
        {
          "indexed": true,
          "internalType": "address",
          "name": "controller",
          "type": "address"
        },
        {
          "indexed": true,
          "internalType": "uint24",
          "name": "epoch",
          "type": "uint24"
        },
        {
          "components": [
            {
              "internalType": "uint64",
              "name": "position",
              "type": "uint64"
            },
            {
              "internalType": "uint192",
              "name": "action",
              "type": "uint192"
            }
          ],
          "indexed": false,
          "internalType": "struct Game.Action[]",
          "name": "actions",
          "type": "tuple[]"
        },
        {
          "indexed": false,
          "internalType": "uint64",
          "name": "newPosition",
          "type": "uint64"
        }
      ],
      "name": "MoveRevealed",
      "type": "event"
    },
    {
      "inputs": [
        {
          "internalType": "uint256",
          "name": "",
          "type": "uint256"
        },
        {
          "internalType": "bytes24",
          "name": "",
          "type": "bytes24"
        },
        {
          "internalType": "address payable",
          "name": "",
          "type": "address"
        }
      ],
      "name": "commit",
      "outputs": [],
      "stateMutability": "payable",
      "type": "function"
    },
    {
      "inputs": [
        {
          "internalType": "uint256",
          "name": "",
          "type": "uint256"
        },
        {
          "internalType": "address payable",
          "name": "",
          "type": "address"
        }
      ],
      "name": "enter",
      "outputs": [],
      "stateMutability": "payable",
      "type": "function"
    },
    {
      "inputs": [
        {
          "internalType": "uint256",
          "name": "",
          "type": "uint256"
        },
        {
          "internalType": "address",
          "name": "",
          "type": "address"
        }
      ],
      "name": "leave",
      "outputs": [],
      "stateMutability": "nonpayable",
      "type": "function"
    },
    {
      "inputs": [
        {
          "internalType": "address",
          "name": "",
          "type": "address"
        },
        {
          "internalType": "address",
          "name": "",
          "type": "address"
        },
        {
          "internalType": "uint256",
          "name": "",
          "type": "uint256"
        },
        {
          "internalType": "bytes",
          "name": "",
          "type": "bytes"
        }
      ],
      "name": "onERC721Received",
      "outputs": [],
      "stateMutability": "nonpayable",
      "type": "function"
    },
    {
      "inputs": [
        {
          "internalType": "uint256",
          "name": "",
          "type": "uint256"
        },
        {
          "components": [
            {
              "internalType": "uint64",
              "name": "position",
              "type": "uint64"
            },
            {
              "internalType": "uint192",
              "name": "action",
              "type": "uint192"
            }
          ],
          "internalType": "struct Game.Action[]",
          "name": "",
          "type": "tuple[]"
        },
        {
          "internalType": "bytes32",
          "name": "",
          "type": "bytes32"
        }
      ],
      "name": "reveal",
      "outputs": [],
      "stateMutability": "nonpayable",
      "type": "function"
    }
  ],
  "contractName": "GameRouter",
  "sourceName": "src/game/GameRouter.sol",
  "bytecode": "0x6101803461017e576105ae38819003601f8101601f191683016001600160401b0381118482101761018257839282916040528339810103906101009182811261017e576080811261017e57610052610196565b825190916001600160a01b0391828116810361017e578352602084015190828216820361017e5760208401918252604085015193838516850361017e5760408101948552606086015191848316830361017e5760809060608301938452607f19011261017e576100c0610196565b916080870151835260a0870151936020840194855260e060c08901519860408601998a52015196868816880361017e5786809492818094606089019b8c525116608052511660a052511660c052511660e05251855251926101209384525191610140928352511690610160918252604051926103f894856101b68639608051856101c0015260a0518561020b015260c05185610102015260e0518561017a015251846102be015251836102e20152518261030b0152518161033c0152f35b5f80fd5b634e487b7160e01b5f52604160045260245ffd5b60405190608082016001600160401b038111838210176101825760405256fe60806040526004361015610011575f80fd5b5f3560e01c8063150b7a021461006457806394e434ec1461005f578063e826d0281461005a578063ea3b9ba1146100555763f29953b714610050575f80fd5b6101ed565b6101a7565b61012f565b6100d6565b346100c15760803660031901126100c1576100806004356100c5565b61008b6024356100c5565b6064356001600160401b038082116100c157366023830112156100c15781600401359081116100c15736910160240111156101be575b5f80fd5b6001600160a01b038116036100c157565b60603660031901126100c1576024356001600160401b03198116036100c1576101006044356100c5565b7f00000000000000000000000000000000000000000000000000000000000000006001600160a01b031661028a565b346100c15760603660031901126100c1576001600160401b036024358181116100c157366023820112156100c15780600401359182116100c157602490369260061b0101116100c1577f00000000000000000000000000000000000000000000000000000000000000006001600160a01b031661028a565b60403660031901126100c1576101be6024356100c5565b7f00000000000000000000000000000000000000000000000000000000000000006001600160a01b031661028a565b346100c15760403660031901126100c1576102096024356100c5565b7f00000000000000000000000000000000000000000000000000000000000000006001600160a01b031661028a565b608081019081106001600160401b0382111761025357604052565b634e487b7160e01b5f52604160045260245ffd5b601f909101601f19168101906001600160401b0382119082101761025357604052565b5f809181606060405161029c81610238565b82815282602082015282604082015201528160026040516102bc81610238565b7f00000000000000000000000000000000000000000000000000000000000000008082527f000000000000000000000000000000000000000000000000000000000000000060208084019182527f000000000000000000000000000000000000000000000000000000000000000060408086019182526001600160a01b037f0000000000000000000000000000000000000000000000000000000000000000811660609788019081528251948501968752945191840191909152905194820194909452905190921660808084019190915282529061039b60a082610267565b36848037518091365e8036019060f01b815201915af43d5f803e156103be573d5ff35b3d5ffdfea2646970667358221220b705a85d5082d98b3011d1b74ede732643982a3979d5d4cc4a52d53aa8b5fe9a64736f6c63430008190033",
  "linkReferences": {},
  "deployedLinkReferences": {},
  "devdoc": {
    "events": {
      "CommitmentMade(uint256,address,uint24,bytes24)": {
        "params": {
          "characterID": "the id of the NFT being played",
          "commitmentHash": "the hash of moves",
          "controller": "account handling the character moves",
          "epoch": "epoch number on which this commit belongs to"
        }
      },
      "EnteredTheGame(uint256,address,uint64)": {
        "params": {
          "characterID": "the id of the NFT being played",
          "controller": "account handling the character moves",
          "newPosition": "the resulting new character's position"
        }
      },
      "LeftTheGame(uint256,address,uint64)": {
        "params": {
          "characterID": "the id of the NFT being played",
          "controller": "account handling the character moves",
          "positionWhenLeaving": "the character's position when leaving"
        }
      },
      "MoveRevealed(uint256,address,uint24,(uint64,uint192)[],uint64)": {
        "params": {
          "actions": "the list of moves made",
          "characterID": "the id of the NFT being played",
          "controller": "account handling the character moves",
          "epoch": "epoch number on which this commit belongs to",
          "newPosition": "the resulting new character's position"
        }
      }
    },
    "kind": "dev",
    "methods": {},
    "version": 1
  },
  "evm": {
    "gasEstimates": {
      "creation": {
        "codeDepositCost": "203200",
        "executionCost": "infinite",
        "totalCost": "infinite"
      },
      "external": {
        "commit(uint256,bytes24,address)": "infinite",
        "enter(uint256,address)": "infinite",
        "leave(uint256,address)": "infinite",
        "onERC721Received(address,address,uint256,bytes)": "infinite",
        "reveal(uint256,(uint64,uint192)[],bytes32)": "infinite"
      },
      "internal": {
        "_delegateTo(address)": "infinite",
        "_getConfig()": "infinite"
      }
    }
  },
  "storageLayout": {
    "storage": [],
    "types": null
  },
  "userdoc": {
    "errors": {
      "GameNotStarted()": [
        {
          "notice": "happen when attempting to do something on a game that did not start yet"
        }
      ],
      "NotAuthorizedController(address)": [
        {
          "notice": "happen when an unauthorized account attempt to control a character"
        }
      ],
      "UnableToExitFromThisPosition(uint64)": [
        {
          "notice": "happen when attempting to leave the game from a non-exit position"
        }
      ]
    },
    "events": {
      "CommitmentMade(uint256,address,uint24,bytes24)": {
        "notice": "A character has commited to make a move and reveal it on the reveal phase"
      },
      "EnteredTheGame(uint256,address,uint64)": {
        "notice": "A character has commited to make a move and reveal it on the reveal phase"
      },
      "LeftTheGame(uint256,address,uint64)": {
        "notice": "A character has commited to make a move and reveal it on the reveal phase"
      },
      "MoveRevealed(uint256,address,uint24,(uint64,uint192)[],uint64)": {
        "notice": "A character has its moves revealed and executed"
      }
    },
    "kind": "user",
    "methods": {},
    "version": 1
  },
  "argsData": "0x000000000000000000000000dc20d5dad8e15ec3bec3b11d87c846ea7751ddd900000000000000000000000038fda1b0b35bb99e4ac11d8d604cd03e65feb4230000000000000000000000000c17f61b532b4a7f42d1e82a4fd483fdfab3b29c0000000000000000000000004d1431aa2a3eb08c0784b8bf167043bd7e290593000000000000000000000000000000000000000000000000000000000000000000000000000000000000000000000000000000000000000000000000000143700000000000000000000000000000000000000000000000000000000000000e1000000000000000000000000077516faf2985322dfff4db9274d9a3d053256d7d",
  "transaction": {
    "hash": "0xc30108cc4579e5de5abe73db2af0a39ce93e0b8da7d9f5148e717cdbf64e5677",
    "nonce": "0x1cf",
    "origin": "0x61c461ecc993aadeb7e4b47e96d1b8cc37314b20"
  }
}