{
  "address": "0x0c17f61b532b4a7f42d1e82a4fd483fdfab3b29c",
  "abi": [
    {
      "inputs": [],
      "name": "GameNotStarted",
      "type": "error"
    },
    {
      "inputs": [
        {
          "internalType": "enum Game.Reason",
          "name": "reason",
          "type": "uint8"
        }
      ],
      "name": "InvalidMove",
      "type": "error"
    },
    {
      "inputs": [
        {
          "internalType": "address",
          "name": "sender",
          "type": "address"
        }
      ],
      "name": "NotAuthorizedController",
      "type": "error"
    },
    {
      "inputs": [],
      "name": "OnlyCharactersAreAccepted",
      "type": "error"
    },
    {
      "inputs": [
        {
          "internalType": "uint64",
          "name": "position",
          "type": "uint64"
        }
      ],
      "name": "UnableToExitFromThisPosition",
      "type": "error"
    },
    {
      "anonymous": false,
      "inputs": [
        {
          "indexed": true,
          "internalType": "uint256",
          "name": "characterID",
          "type": "uint256"
        },
        {
          "indexed": true,
          "internalType": "address",
          "name": "controller",
          "type": "address"
        },
        {
          "indexed": true,
          "internalType": "uint24",
          "name": "epoch",
          "type": "uint24"
        },
        {
          "indexed": false,
          "internalType": "bytes24",
          "name": "commitmentHash",
          "type": "bytes24"
        }
      ],
      "name": "CommitmentMade",
      "type": "event"
    },
    {
      "anonymous": false,
      "inputs": [
        {
          "indexed": true,
          "internalType": "uint256",
          "name": "characterID",
          "type": "uint256"
        },
        {
          "indexed": true,
          "internalType": "address",
          "name": "controller",
          "type": "address"
        },
        {
          "indexed": false,
          "internalType": "uint64",
          "name": "newPosition",
          "type": "uint64"
        }
      ],
      "name": "EnteredTheGame",
      "type": "event"
    },
    {
      "anonymous": false,
      "inputs": [
        {
          "indexed": true,
          "internalType": "uint256",
          "name": "characterID",
          "type": "uint256"
        },
        {
          "indexed": true,
          "internalType": "address",
          "name": "controller",
          "type": "address"
        },
        {
          "indexed": false,
          "internalType": "uint64",
          "name": "positionWhenLeaving",
          "type": "uint64"
        }
      ],
      "name": "LeftTheGame",
      "type": "event"
    },
    {
      "anonymous": false,
      "inputs": [
        {
          "indexed": true,
          "internalType": "uint256",
          "name": "characterID",
          "type": "uint256"
        },
        {
          "indexed": true,
          "internalType": "address",
          "name": "controller",
          "type": "address"
        },
        {
          "indexed": true,
          "internalType": "uint24",
          "name": "epoch",
          "type": "uint24"
        },
        {
          "components": [
            {
              "internalType": "uint64",
              "name": "position",
              "type": "uint64"
            },
            {
              "internalType": "uint192",
              "name": "action",
              "type": "uint192"
            }
          ],
          "indexed": false,
          "internalType": "struct Game.Action[]",
          "name": "actions",
          "type": "tuple[]"
        },
        {
          "indexed": false,
          "internalType": "uint64",
          "name": "newPosition",
          "type": "uint64"
        }
      ],
      "name": "MoveRevealed",
      "type": "event"
    },
    {
      "inputs": [
        {
          "internalType": "uint256",
          "name": "characterID",
          "type": "uint256"
        },
        {
          "internalType": "bytes24",
          "name": "commitmentHash",
          "type": "bytes24"
        },
        {
          "internalType": "address payable",
          "name": "payee",
          "type": "address"
        }
      ],
      "name": "commit",
      "outputs": [],
      "stateMutability": "payable",
      "type": "function"
    },
    {
      "inputs": [
        {
          "components": [
            {
              "internalType": "uint256",
              "name": "characterID",
              "type": "uint256"
            },
            {
              "internalType": "address",
              "name": "controller",
              "type": "address"
            },
            {
              "internalType": "uint24",
              "name": "epoch",
              "type": "uint24"
            },
            {
              "internalType": "bytes24",
              "name": "commitmentHash",
              "type": "bytes24"
            }
          ],
          "internalType": "struct GameCommit.Context",
          "name": "context",
          "type": "tuple"
        }
      ],
      "name": "computeStateChanges",
      "outputs": [
        {
          "components": [
            {
              "internalType": "uint256",
              "name": "characterID",
              "type": "uint256"
            },
            {
              "internalType": "uint24",
              "name": "epoch",
              "type": "uint24"
            },
            {
              "internalType": "bytes24",
              "name": "commitmentHash",
              "type": "bytes24"
            }
          ],
          "internalType": "struct GameCommit.StateChanges",
          "name": "stateChanges",
          "type": "tuple"
        }
      ],
      "stateMutability": "pure",
      "type": "function"
    }
  ],
  "contractName": "GameCommit",
  "sourceName": "src/game/routes/GameCommit.sol",
  "bytecode": "0x6080806040523460155761066d908161001a8239f35b5f80fdfe60406080815260049081361015610014575f80fd5b5f3560e01c806394e434ec146101065763c77987fb14610032575f80fd5b346101025760807ffffffffffffffffffffffffffffffffffffffffffffffffffffffffffffffffc36011261010257610069610523565b9135825260243573ffffffffffffffffffffffffffffffffffffffff8116810361010257602083015262ffffff9060443582811681036101025781840152606435927fffffffffffffffffffffffffffffffffffffffffffffffff0000000000000000908185168503610102576100e7816060968786940152610570565b81519481518652602082015116602086015201511690820152f35b5f80fd5b5060607ffffffffffffffffffffffffffffffffffffffffffffffffffffffffffffffffc360112610102578135916024928335907fffffffffffffffffffffffffffffffffffffffffffffffff000000000000000090818316809303610102576044359373ffffffffffffffffffffffffffffffffffffffff92838616809603610102576101926105dd565b61019a6105dd565b507ffffffffffffffffffffffffffffffffffffffffffffffffffffffffffffffffe948536013560f01c360391868301943686116101025760806002858036038101030112610102576101eb610523565b9535865260209586810197601e8601358952605e8d830196603e810135885201358581168103610102576060830152805f52600188528c5f20335f52885260ff8d5f20541660038110156104f857156104ca57835286830197338952519451850180951161049f5780514210610477576102669051426105fd565b93801561044c5780850494600286018096116103f65762ffffff809616998a018681116104215786168281029281840414901517156103f6578c92916102ab916105fd565b5081830198895260608301998a526102c283610570565b8683820151168689830151169284519485019085821067ffffffffffffffff8311176103c657508e9f507fbd4730246898b57f6fcfe9db7a2a952d96136ed5d4808b19d6aa9ed5e762259b9a9b9c9d9e528352878301918252515f525f87528c5f2091518d1c7fffffffffff0000000000000000000000000000000000000000000000000000007affffff0000000000000000000000000000000000000000000000008454935160c01b16921617179055519551169551169551168751908152a4801515806103bd575b61039257005b5f80808093819034156103b3575b3491f1156103aa57005b513d5f823e3d90fd5b6108fc91506103a0565b5034151561038c565b90508f9250604191507f4e487b71000000000000000000000000000000000000000000000000000000005f52525ffd5b8d6011847f4e487b71000000000000000000000000000000000000000000000000000000005f52525ffd5b8e6011857f4e487b71000000000000000000000000000000000000000000000000000000005f52525ffd5b8c6012837f4e487b71000000000000000000000000000000000000000000000000000000005f52525ffd5b508a517f3a5f7b57000000000000000000000000000000000000000000000000000000008152fd5b8c6011837f4e487b71000000000000000000000000000000000000000000000000000000005f52525ffd5b8c517fee027da400000000000000000000000000000000000000000000000000000000815233818501528e90fd5b8e6021857f4e487b71000000000000000000000000000000000000000000000000000000005f52525ffd5b604051906080820182811067ffffffffffffffff82111761054357604052565b7f4e487b71000000000000000000000000000000000000000000000000000000005f52604160045260245ffd5b90604051916060830183811067ffffffffffffffff821117610543576040525f83527fffffffffffffffffffffffffffffffffffffffffffffffff0000000000000000606060208501925f845260408601935f8552868251905262ffffff60408301511690520151169052565b6105e5610523565b905f82525f60208301525f60408301525f6060830152565b9190820391821161060a57565b7f4e487b71000000000000000000000000000000000000000000000000000000005f52601160045260245ffdfea264697066735822122063fe9b02bcfe06d69ef260afcf9f91b2aa4aa82d5daac42d2e38f69d569416a164736f6c63430008190033",
  "linkReferences": {},
  "deployedLinkReferences": {},
  "devdoc": {
    "events": {
      "CommitmentMade(uint256,address,uint24,bytes24)": {
        "params": {
          "characterID": "the id of the NFT being played",
          "commitmentHash": "the hash of moves",
          "controller": "account handling the character moves",
          "epoch": "epoch number on which this commit belongs to"
        }
      },
      "EnteredTheGame(uint256,address,uint64)": {
        "params": {
          "characterID": "the id of the NFT being played",
          "controller": "account handling the character moves",
          "newPosition": "the resulting new character's position"
        }
      },
      "LeftTheGame(uint256,address,uint64)": {
        "params": {
          "characterID": "the id of the NFT being played",
          "controller": "account handling the character moves",
          "positionWhenLeaving": "the character's position when leaving"
        }
      },
      "MoveRevealed(uint256,address,uint24,(uint64,uint192)[],uint64)": {
        "params": {
          "actions": "the list of moves made",
          "characterID": "the id of the NFT being played",
          "controller": "account handling the character moves",
          "epoch": "epoch number on which this commit belongs to",
          "newPosition": "the resulting new character's position"
        }
      }
    },
    "kind": "dev",
    "methods": {},
    "version": 1
  },
  "evm": {
    "gasEstimates": {
      "creation": {
        "codeDepositCost": "329000",
        "executionCost": "375",
        "totalCost": "329375"
      },
      "external": {
        "commit(uint256,bytes24,address)": "infinite",
        "computeStateChanges((uint256,address,uint24,bytes24))": "701"
      },
      "internal": {
        "_apply(struct Game.Store storage pointer,struct GameCommit.StateChanges memory)": "infinite",
        "_context(struct Game.Store storage pointer,uint256,bytes24)": "infinite"
      }
    }
  },
  "storageLayout": {
    "storage": [],
    "types": null
  },
  "userdoc": {
    "errors": {
      "GameNotStarted()": [
        {
          "notice": "happen when attempting to do something on a game that did not start yet"
        }
      ],
      "NotAuthorizedController(address)": [
        {
          "notice": "happen when an unauthorized account attempt to control a character"
        }
      ],
      "UnableToExitFromThisPosition(uint64)": [
        {
          "notice": "happen when attempting to leave the game from a non-exit position"
        }
      ]
    },
    "events": {
      "CommitmentMade(uint256,address,uint24,bytes24)": {
        "notice": "A character has commited to make a move and reveal it on the reveal phase"
      },
      "EnteredTheGame(uint256,address,uint64)": {
        "notice": "A character has commited to make a move and reveal it on the reveal phase"
      },
      "LeftTheGame(uint256,address,uint64)": {
        "notice": "A character has commited to make a move and reveal it on the reveal phase"
      },
      "MoveRevealed(uint256,address,uint24,(uint64,uint192)[],uint64)": {
        "notice": "A character has its moves revealed and executed"
      }
    },
    "kind": "user",
    "methods": {},
    "version": 1
  },
  "argsData": "0x",
  "transaction": {
    "hash": "0x4a058cd980e353d2dd84388e7ab1b48d59e14c6897a7cf8032e563a6376d5ba9",
    "nonce": "0x1cd",
    "origin": "0x61c461ecc993aadeb7e4b47e96d1b8cc37314b20"
  }
}